:100000000C9458020C9473020C9473020C947302B7
:100010000C94AC050C9473020C9473020C94730250
:100020000C9473020C94D2020C9473020C942C0561
:100030000C9473020C9473020C9473020C9473026C
:100040000C9473020C9473020C9473020C9473025C
:100050000C947302424F543A5C3E000D0A000D0AA4
:100060002044696573656E2042656665686C206B27
:10007000656E6E6520696368206E696368742E0D15
:100080000A002044752068617374202200222065D4
:10009000696E6765676562656E2E20000C202A2AEE
:1000A0002A2048616C6C6F21202A2A2A002049638B
:1000B000682062696E2065696E206B6C65696E658B
:1000C0007220526F626F7465722E20576173206DBB
:1000D0006F65636874657374206475206D6974203E
:1000E0006D6972206D616368656E3F00204D6974B3
:1000F0002064656D2042656665686C3A00202D209D
:100100003F202020202020205A65696765206963F0
:10011000682064696520616C6C652042656665686D
:100120006C65206469652069636820766572737404
:100130006568652E00202D2073746174757320200E
:100140006B616E6E737420647520736568656E2CC8
:100150002077696520696368206D6963682066752A
:1001600065686C652E00202D20636C732020202094
:10017000206C6F65736368742064752064656E20FD
:1001800042696C6473636869726D2E00202D206D66
:100190006F7665202020206B616E6E73742064750D
:1001A000206D6963682066616872656E206C61739A
:1001B00073656E2E00202D2064656D6F2020202039
:1001C0006661687265206963682065696E2077657D
:1001D0006E69672068696E20756E64206865722E8E
:1001E00000202D2064656275672020205A656967AC
:1001F00065206963682064697220416B7475656C61
:100200006C65205374617475736D656C64756E678D
:10021000656E2E000C202A2A2A20486921202A2ACD
:100220002A0D0A00204963682062696E206865759E
:100230007465207363686F6E207365697420002095
:10024000756E746572776567732E0D0A00204963B9
:100250006820667565686C65206D696368206775E0
:100260007420756E64206D65696E6520416B6B75D9
:100270007370616E6E756E6720626574726165671A
:1002800074206E6F63683A00203132560D0A000CFC
:10029000202A2A2A204769622047617321202A2ABE
:1002A0002A0D0A00204D69742064656E2050666531
:1002B000696C74617374656E206B616E6E7374200B
:1002C0006475206D696368206E756E207374657542
:1002D00065726E2E0D0A00204D69742045736320EF
:1002E0006265656E64657374206475206469652059
:1002F00046616872742E000C202A2A2A2044454D3B
:100300004F202A2A2A200D0A0020496368206661AE
:100310006872652065696E2077656E696720686917
:100320006E20756E64206865722E0D0A00204D697E
:100330007420457363206265656E64657374206420
:1003400075206469652046616872742E000C202A4D
:100350002A2A204445425547202A2A2A200D0A00ED
:1003600020496368206B616E6E2064697220766537
:1003700072736368696564656E65204445425547DC
:10038000696E666F6D6174696F6E656E20617573FD
:10039000676562656E3A0D0A00204D6974206465D8
:1003A0006D2042656665686C3A0D0A00202D206458
:1003B0006562756720636D642020202020206765BA
:1003C0006265206963682064697220616C6C6520D5
:1003D000676573656E64657465205A6569636865F1
:1003E0006E206175732E0D0A00202D2064656275E4
:1003F0006720656E632020202020206765626520CD
:10040000696368206469652064696520616B74753F
:10041000656C6C656E20456E636F6465727765729E
:100420007465206175732E0D0A00202D20646562AD
:10043000756720726567202020202020676562652F
:10044000206963682064697220616B7475656C6CE7
:1004500065205265676C6572776572746520617599
:10046000732E0D0A00202D2044696520416E7A65A7
:10047000696765206265656E6465737420647520C4
:100480006D6974206573636170652E0D0A000C0040
:100490000C204665686C657220696E206465722068
:1004A000436F6D6D616E646C696E6521210D0A008C
:1004B00011241FBECFE5D4E0DEBFCDBF11E0A0E622
:1004C000B0E0E0EAF1E102C005900D92A232B1077E
:1004D000D9F711E0A2E2B1E001C01D92A33AB10741
:1004E000E1F70C9475020C940000CDE5D4E0DEBF7A
:1004F000CDBF0E942A030E946B0580E690E00E9417
:10050000660383E790E00E94660384EB90E00E941C
:10051000660378940E940305898389810E94880676
:100520000E9431078A838A810E94380782E090E026
:100530000E949605EFCF2FB7F894E82FFF27EE0F14
:10054000FF1FE85DFE4F80819181118210822FBFD5
:10055000089584B3807F84BB85B38F6085BB80E0C2
:100560000E949B0281E00E949B0282E083BF89B7C8
:10057000816089BF0895DC01CB01BC01CD0128EE6B
:1005800033E040E050E00E946008DC01CB01BC0198
:10059000CD0122E233E140E050E00E94A108CA010F
:1005A000B90108951F920F920FB60F9211242F9345
:1005B0003F934F935F938F939F9340E050E09A99BE
:1005C00041E09B9B02C083E04827989951E0999BAA
:1005D00002C083E058279091BB00842F891B282FED
:1005E000332727FD309520FF10C0980F9093BB0054
:1005F000227030708091280190912901820F931F01
:10060000019790932901809328019091BC00852F38
:10061000891B282F332727FD309520FF10C0980F06
:100620009093BC002270307080912A0190912B0130
:10063000820F931F019790932B0180932A019F9122
:100640008F915F914F913F912F910F900FBE0F901F
:100650001F901895CF93DF93CDB7DEB7109240006F
:1006600082E08093290088E980932A0086E88093BD
:1006700040008DEB90E00E9466034AE06CE271E07E
:1006800086E391E00E943F06DF91CF910895CF93DA
:10069000DF93CDB7DEB721970FB6F894DEBF0FBE5C
:1006A000CDBF898380912B0099278072907000972D
:1006B00009F4F8CF898180932C0021960FB6F89425
:1006C000DEBF0FBECDBFDF91CF910895CF93DF93F3
:1006D000CDB7DEB722970FB6F894DEBF0FBECDBF01
:1006E0009A838983E981FA818081882349F0E981AD
:1006F000FA8180813196FA83E9830E944703F2CF21
:1007000022960FB6F894DEBF0FBECDBFDF91CF911A
:100710000895CF93DF93CDB7DEB726970FB6F89441
:10072000DEBF0FBECDBF9A83898389819A819D8365
:100730008C83EC81FD8184918E838E818B838823D1
:1007400049F08B810E94470389819A8101969A839F
:100750008983EBCF26960FB6F894DEBF0FBECDBFD0
:10076000DF91CF910895CF93DF93CDB7DEB729976F
:100770000FB6F894DEBF0FBECDBF9A838983CE013A
:1007800003964AE050E0BC0189819A810E942F08BB
:10079000CE0103960E94660329960FB6F894DEBF39
:1007A0000FBECDBFDF91CF910895EF92FF920F93CF
:1007B0001F93CF93DF93CDB7DEB72D970FB6F89485
:1007C000DEBF0FBECDBF0E947105DC01CB01898366
:1007D0009A83AB83BC8389819A81AB81BC8100976A
:1007E000A105B10509F402C189819A81AB81BC815F
:1007F00028EE33E040E050E0BC01CD010E947F08CC
:10080000DA01C9018D839E83AF83B8878D819E8174
:10081000AF81B8852CE330E040E050E0BC01CD0171
:100820000E947F08DA01C90189879A87AB87BC8754
:1008300089859A85AB85BC852CE330E040E050E0AB
:10084000BC01CD010E947F08DA01C9018D879D8519
:100850008CE3989FC00111249C01442737FD4095EB
:10086000542F89859A85AB85BC85821B930BA40B7D
:10087000B50B89879A87AB87BC8789859A85AB85B5
:10088000BC852CE330E040E050E0BC01CD010E948B
:100890006008AB01BC018D85282F332780E19EE0E5
:1008A000289FF001299FF00D389FF00D1124CF01F2
:1008B000AA2797FDA095BA2F9A01AB01280F391FDF
:1008C0004A1F5B1F8D819E81AF81B885821B930B70
:1008D000A40BB50B8D839E83AF83B8878D819E81DA
:1008E000AF81B88528EE33E040E050E0BC01CD0197
:1008F0000E9460087B018C0189859A85AB85BC8547
:1009000020E63AEE40E050E0BC01CD010E946008D4
:10091000DC01CB01B801A701480F591F6A1F7B1FDB
:100920008D85282F332780E89EEE289FF001299F90
:10093000F00D389FF00D1124CF01AA2797FDA09547
:10094000BA2F9A01AB01280F391F4A1F5B1F8981FB
:100950009A81AB81BC81821B930BA40BB50B89835D
:100960009A83AB83BC838D858A3018F480E30E9420
:1009700047038D8599270E94B3038AE30E944703AA
:1009800089859A85AB85BC858A309105A105B1051D
:1009900018F480E30E94470389859A850E94B30377
:1009A0008AE30E9447038D819E81AF81B8858A309A
:1009B0009105A105B10518F480E30E9447038D81DC
:1009C0009E810E94B3038AE30E94470389819A8132
:1009D000AB81BC8124E630E040E050E0BC01CD01B9
:1009E0000E947F08DA01C9010E94B3032D960FB659
:1009F000F894DEBF0FBECDBFDF91CF911F910F9155
:100A0000FF90EF900895CF93DF93CDB7DEB7239794
:100A10000FB6F894DEBF0FBECDBFBE016F5F7F4F34
:100A200086E391E00E946606882339F4898199273C
:100A300087FD90959B838A8304C08FEF9FEF9B83F4
:100A40008A838A819B8123960FB6F894DEBF0FBEFE
:100A5000CDBFDF91CF9108951F920F920FB60F92E5
:100A600011242F933F934F935F936F937F938F93B3
:100A70009F93AF93BF93EF93FF93CF93DF93CDB744
:100A8000DEB72197DEBFCDBF80912C0089836981BD
:100A900086E391E00E94490680912B00992780729D
:100AA0009070009709F4F8CF2196F894DEBFCDBF7F
:100AB000DF91CF91FF91EF91BF91AF919F918F9176
:100AC0007F916F915F914F913F912F910F900FBE4A
:100AD0000F901F9018958AE785BD89B7806489BFFC
:100AE00008958091240190912501A0912601B09153
:100AF0002701BA2FA92F982F882720912301820F31
:100B0000911DA11DB11DBC01CD0124E230E040E0EA
:100B100050E00E947F08CA01B90108959091230115
:100B2000980F809123018917E1F708950F931F9380
:100B3000CF93DF938C01C0E0D0E0C817D9073CF415
:100B400084E20E948E052196C017D107CCF3DF9175
:100B5000CF911F910F9108951F920F920FB60F9290
:100B600011248F939F93AF93BF9384B5895284BD13
:100B7000809123018F5F809323018091230188233B
:100B800099F48091240190912501A0912601B091C2
:100B900027010196A11DB11D809324019093250189
:100BA000A0932601B0932701BF91AF919F918F91A0
:100BB0000F900FBE0F901F901895992781309105C7
:100BC00061F0823091051CF4892B21F00BC0029753
:100BD00039F008C0AF98AE9A05C0AE98AF9A02C07F
:100BE000AE98AF9877276130710569F06230710572
:100BF0001CF4672B29F008956230710539F00895CF
:100C0000AC98AD9A0895AD98AC9A0895AC98AD980B
:100C100008952FB7F894882331F0992781509F4F7A
:100C20009BBD8ABD02C01BBC1ABC662339F0862F4F
:100C3000992781509F4F99BD88BD02C019BC18BC2F
:100C40002FBF08958D9A959884B3806C84BB8C9A3D
:100C5000949884B3806384BB60E0862F0E94DD0596
:100C600060E0862F0E94090682E08FBD89E08EBD7C
:100C70008FB580688FBD8FB580628FBD0895FC01F0
:100C800010827583648373836283418347834683C1
:100C90000895FC0190818181981718F080E090E020
:100CA00008959FB7F894A481B5816D938781815091
:100CB00019F48181A81BB1098783B583A48380813E
:100CC0008F5F80839FBF81E090E00895CF93DF9393
:100CD000FC01EB018081882319F481E090E015C0CC
:100CE0002FB7F894A281B38196818D91888391501A
:100CF00019F49181A91BB109B383A28396838081E2
:100D0000815080832FBF80E090E0DF91CF910895E4
:100D1000CF93DF93982F8F3F09F49EC08D3009F059
:100D200068C0E091DF00F091E0001082CFE3D1E0F5
:100D3000D093E000C093DF0010923E0161EE70E0BE
:100D4000CE010E942508892B39F063EE70E0CE01B8
:100D50000E942508892B11F484E062C068EE70E0DF
:100D6000CE010E942508892B11F483E059C06FEE53
:100D700070E0CE010E942508892B11F482E050C05A
:100D800063EF70E0CE010E942508892B11F485E005
:100D900047C068EF70E0CE010E942508892B11F44E
:100DA00086E03EC06DEF70E0CE010E942508892BE1
:100DB00011F48AE035C063E071E0CE010E9425089D
:100DC000892B11F48BE02CC06DE071E0CE010E9404
:100DD0002508892B11F48CE023C067E171E08FE3D3
:100DE00091E00E942508892B11F48DE019C081E063
:100DF00017C08B31C1F40E9403058B3581F40E942A
:100E00000305982F813441F0823431F0833411F49A
:100E100085E406C0843401F5909322011FC08BE164
:100E2000809322011BC08A30B9F08830A9F08091EC
:100E30003E01803689F0E091DF00F091E00091936F
:100E4000F093E000E093DF00892F0E944703809138
:100E50003E018F5F80933E0110922201DF91CF917E
:100E6000089580912201992708958FE391E00895D4
:100E700099278A30910509F4C5C08B309105ECF4AF
:100E80008330910509F493C0843091055CF481307E
:100E9000910541F1823091050CF0CFC0892B09F406
:100EA000D3C0CEC08530910509F496C08530910538
:100EB0008CF1069709F49BC0C3C08334910564F498
:100EC000813491050CF0C0C08E3091050CF4BCC08B
:100ED0004B9709F463C0B4C084549040029708F063
:100EE000AFC008958EE590E00E94890382E890E00B
:100EF0000E9489030E9435070E9466038DE890E0F6
:100F00000E9489030E943507FC01808199270E9475
:100F1000B30344C08CE990E00E9489038BE590E024
:100F20000E9489038DEA90E00E9489038BE590E09E
:100F30000E9489038CEE90E00E9489038BE590E08B
:100F40000E9489038DEF90E00E9489038BE590E079
:100F50000E94890385E391E00E9489038BE590E07C
:100F60000E94890386E691E00E9489038BE590E068
:100F70000E9489038CE891E00E9489038BE590E050
:100F80000E94890385EB91E00E9489038BE590E044
:100F90000E94890381EE91E00E9489038BE590E035
:100FA0000E94890384E590E00E948903089584E10A
:100FB00092E00E94890384E292E00E9489030E94E9
:100FC000D5038FE392E00E9489038DE492E00E94B2
:100FD000890388E892E0E4CF8FE892E00E948903D9
:100FE00084EA92E00E94890387ED92E0DDCF87EFEB
:100FF00092E00E94890389E093E00E9489038DE2D8
:1010000093E0D2CF8DE493E00E94890380E693E0E1
:101010000E94890389E993E00E9489038CEA93E0A6
:101020000E94890389EE93E00E9489038AE294E09A
:101030000E94890385E694E0B3CF8EE894E0B0CFB8
:1010400080E994E00E9489030895FB01DC018D9101
:101050000190801911F40020D1F7990B0895FB013C
:101060009F01E8944230C4F04532B4F44A3029F488
:1010700097FB1EF4909581959F4F642F77270E94D0
:10108000BC08805D8A330CF0895D8193CB010097A9
:10109000A1F716F45DE251931082C9010C94500837
:1010A000DC01FC0101900020E9F73297AE17BF0781
:1010B00030F47C916081708331976D93F7CF089500
:1010C000629FD001739FF001829FE00DF11D649F2C
:1010D000E00DF11D929FF00D839FF00D749FF00DB8
:1010E000659FF00D9927729FB00DE11DF91F639F59
:1010F000B00DE11DF91FBD01CF0111240895A1E23A
:101100001A2EAA1BBB1BFD010DC0AA1FBB1FEE1F81
:10111000FF1FA217B307E407F50720F0A21BB30BCC
:10112000E40BF50B661F771F881F991F1A9469F748
:1011300060957095809590959B01AC01BD01CF01A4
:10114000089597FB092E05260ED057FD04D0D7DF52
:101150000AD0001C38F450954095309521953F4FAA
:101160004F4F5F4F0895F6F7909580957095619574
:101170007F4F8F4F9F4F0895AA1BBB1B51E107C0A4
:10118000AA1FBB1FA617B70710F0A61BB70B881F17
:10119000991F5A95A9F780959095BC01CD010895A6
:1011A0000C202A2A2A2048616C6C6F21202A2A2AC6
:1011B0000D0A00204963682062696E2065696E200F
:1011C0006B6C65696E657220526F626F7465722E0A
:1011D00020576173206D6F65636874657374206454
:1011E00075206D6974206D6972206D616368656E2C
:1011F0003F0D0A00424F543A5C3E000101556172B6
:1012000074207775726465207269636874696720F9
:10121000696E697469616C6973696572740A003F0B
:10122000013F0068656C70007374617475730063CE
:101230006C73006D6F76650064656D6F0064656248
:10124000756700646562756720636D64006465623C
:10125000756720656E6300646562756720726567F7
:0212600000008C
:00000001FF
