:100000000C9438000C9455000C9455000C94550039
:100010000C9455000C9455000C9455000C9455000C
:100020000C9455000C9455000C9455000C945500FC
:100030000C9455000C9455000C9455000C945500EC
:100040000C9455000C9455000C9455000C945500DC
:100050000C9455000C9455000C9455000C945500CC
:100060000C9455000C9455000C9455000C945500BC
:1000700011241FBECFEFD0E1DEBFCDBF11E0A0E065
:10008000B1E0E2EDF8E002C005900D92A632B107B2
:10009000D9F711E0A6E2B1E001C01D92A632B10786
:1000A000E1F70E9486000C9468040C940000089507
:1000B000EF92FF920F931F938C012C98892F992711
:1000C0000E94AA03E82E802F0E94AA032C9AFF24E4
:1000D000FE2CEE24E80EF11CC7011F910F91FF903A
:1000E000EF9008950F931F932C9880E00E94AA032D
:1000F000082F80E00E94AA032C9A1127102F0027B6
:10010000080F111DC8011F910F9108950F931F93A0
:100110000E94C8032C9A0E949D032C9880E00E94A4
:10012000AA03082F80E00E94AA032C9A1127102FFF
:100130000027080F111DC8018827990F881F9927CC
:100140000E94E703C80184E0989F812D992711241C
:10015000817090700E94E703C801892F99278295CA
:1001600086958770817090700E94E703C801892F7F
:10017000992782958F70817090700E94E703C80163
:10018000892F9927869586958695817090700E9413
:10019000E703C801892F992786958695817090700D
:1001A0000E94E703C801892F992786958170907076
:1001B0000E94E703812F9927817090700E94E703C6
:1001C000C801880F892F881F990B919581709070B5
:1001D0000E94E703C8010024880F991F001C880FA4
:1001E000991F001C892F902D817090700E94E70349
:1001F000C80196958795929582958F7089279F70F3
:100200008927817090700E94E703C80192958295BA
:100210008F7089279F708927817090700E94E703F3
:10022000C80196958795969587959695879581703F
:1002300090700E94E703C8019695879596958795DB
:10024000817090700E94E703C80196958795817030
:1002500090700E94E703C801817090700E94E703CC
:1002600080E091E00E94B9032C9880E80E94AA03E4
:1002700087ED0E94AA032C9A2C9882E80E94AA0378
:1002800089E30E94AA032C9A2C9881EA0E94AA036F
:1002900080E40E94AA032C9A2C9886EC0E94AA0360
:1002A00087E40E94AA032C9A2C9884E90E94AA034E
:1002B00080EA0E94AA032C9A2C9882EC0E94AA033E
:1002C0008BEA0E94AA032C9A2C988AEC0E94AA031B
:1002D00081E80E94AA032C9A2C9884EC0E94AA031D
:1002E00087EF0E94AA032C9A2C9888E90E94AA03FF
:1002F00080E90E94AA032C9A2C9880EC0E94AA0301
:100300008CEF0E94AA032C9A2C9880E00E94AA03EA
:10031000082F80E00E94AA032C9A1127102F002793
:10032000080F111DC8018827990F881F99270E945F
:10033000E703C80184E0989F812D992711248170DB
:1003400090700E94E703C801892F992782958695AE
:100350008770817090700E94E703C801892F9927E8
:1003600082958F70817090700E94E703C801892F79
:100370009927869586958695817090700E94E703EF
:10038000C801892F992786958695817090700E9463
:10039000E703C801892F99278695817090700E9484
:1003A000E703812F9927817090700E94E703C801AD
:1003B000880F892F881F990B9195817090700E94EA
:1003C000E703C8010024880F991F001C880F991F9C
:1003D000001C892F902D817090700E94E703C80146
:1003E00096958795929582958F7089279F7089271A
:1003F000817090700E94E703C801929582958F707A
:1004000089279F708927817090700E94E703C80137
:100410009695879596958795969587958170907016
:100420000E94E703C80196958795969587958170F8
:1004300090700E94E703C80196958795817090702F
:100440000E94E703C801817090700E94E70380E07A
:1004500091E00E94B9032C9888EB0E94AA038AEAD3
:100460000E94AA032C9A2C9880E00E94AA03082FCD
:1004700080E00E94AA032C9A1127102F0027080F52
:10048000111DC8018827990F881F99270E94E7032B
:10049000C80184E0989F812D992711248170907064
:1004A0000E94E703C801892F992782958695877056
:1004B000817090700E94E703C801892F9927829567
:1004C0008F70817090700E94E703C801892F99276F
:1004D000869586958695817090700E94E703C80185
:1004E000892F992786958695817090700E94E703E1
:1004F000C801892F99278695817090700E94E70323
:10050000812F9927817090700E94E703C801880F9E
:10051000892F881F990B9195817090700E94E70335
:10052000C8010024880F991F001C880F991F001C08
:10053000892F902D817090700E94E703C8019695D5
:100540008795929582958F7089279F7089278170F2
:1005500090700E94E703C801929582958F70892759
:100560009F708927817090700E94E703C80196955B
:1005700087959695879596958795817090700E943E
:10058000E703C80196958795969587958170907039
:100590000E94E703C80196958795817090700E942C
:1005A000E703C801817090700E94E70380E091E04A
:1005B0000E94B90380E090E000000196893C91051B
:1005C000D9F72C9880E00E94AA03082F80E00E94AF
:1005D000AA032C9A1127102F0027080F111DC801FC
:1005E0008827990F881F99270E94E703C80184E094
:1005F000989F812D99271124817090700E94E703A4
:10060000C801892F9927829586958770817090708F
:100610000E94E703C801892F992782958F70817006
:1006200090700E94E703C801892F992786958695C7
:100630008695817090700E94E703C801892F9927E1
:1006400086958695817090700E94E703C801892F76
:1006500099278695817090700E94E703812F9927D2
:10066000817090700E94E703C801880F892F881F4E
:10067000990B9195817090700E94E703C801002446
:10068000880F991F001C880F991F001C892F902D1F
:10069000817090700E94E703C801969587959295A6
:1006A00082958F7089279F708927817090700E9432
:1006B000E703C801929582958F7089279F708927DB
:1006C000817090700E94E703C80196958795969572
:1006D000879596958795817090700E94E703C80171
:1006E0009695879596958795817090700E94E703FF
:1006F000C80196958795817090700E94E703C801A4
:10070000817090700E94E70380E091E00E94B9033D
:100710002C9888EB0E94AA038AEA0E94AA032C9ACA
:100720002C9888EB0E94AA038AEA0E94AA032C9ABA
:1007300080E090E01F910F91089584B1806A84B9A0
:1007400085B18F7185B9249A2C9880E58CBD81E0A4
:100750008DBD08958EBD0DB407FEFDCF8EB59927D2
:100760000895982F8091C00085FFFCCF9093C6001C
:100770000895FC019081992351F031968091C00039
:1007800085FFFCCF9093C60090819923B1F708951F
:100790008091C00082608093C0001092C5008CE000
:1007A0008093C40086E08093C20088E98093C100F2
:1007B000E3E0F1E09091030131968091C00085FF64
:1007C000FCCF9093C60090819923B1F708950F93C1
:1007D0001F93CF93DF93CDB7DEB727970FB6F8946B
:1007E000DEBF0FBECDBF4AE050E08E010F5F1F4F4E
:1007F000B8010E9423049981992359F0F801319698
:100800008091C00085FFFCCF9093C6009081992312
:10081000B1F727960FB6F894DEBF0FBECDBFDF91BC
:10082000CF911F910F910895FC019491992351F05C
:100830008091C00085FFFCCF9093C60031969491C3
:100840009923B1F70895FB019F01E8944230C4F069
:100850004532B4F44A3029F497FB1EF49095819503
:100860009F4F642F77270E945404805D8A330CF0D9
:10087000895D8193CB010097A1F716F45DE2519356
:100880001082C9010C944404DC01FC01672F7191B2
:100890007723E1F7329704C07C916D937083629166
:1008A000AE17BF07C8F30895AA1BBB1B51E107C0D1
:1008B000AA1FBB1FA617B70710F0A61BB70B881FF0
:1008C000991F5A95A9F780959095BC01CD0108957F
:0208D000FFCF58
:1008D2000A0D005561727420777572646520726921
:1008E200636874696720696E697469616C697369A8
:0608F2006572740D0A009E
:00000001FF
