:100000000C9434000C9451000C9451000C94CF00CB
:100010000C9451000C9451000C9451000C9451001C
:100020000C9451000C9466030C9451000C945100F4
:100030000C9451000C9451000C9451000C945100FC
:100040000C9451000C9451000C94BF030C9451007B
:100050000C9451000C9451000C9451000C945100DC
:100060000C9451000C94510011241FBECFEFD4E02A
:10007000DEBFCDBF12E0A0E0B1E0E4EBF0E102C0F2
:1000800005900D92AC39B107D9F712E0ACE9B2E0B6
:1000900001C01D92A43CB107E1F70E94D7010C9466
:1000A00058080C940000FC011082758364837383EC
:1000B00062834183478346830895FC019081818157
:1000C0009817A0F49FB7F894A481B5816D938781A8
:1000D000815019F48181A81BB1098783B583A4835A
:1000E00080818F5F80839FBF81E0089580E00895C5
:1000F000CF93DF93FC01EB0180818823C1F02FB700
:10010000F8949681A281B3818D918883915059F0A2
:10011000B383A28396838081815080832FBF80E048
:10012000DF91CF9108959181A91BB109F1CF81E0B1
:10013000DF91CF910895559A569A84B5836084BD16
:1001400084B5806884BD85B5826085BD17BC08957F
:100150001092C50080E48093C40088E18093C100C0
:1001600086E08093C2000895EBE6F0E08081836032
:10017000808381E0809368001092A1021092A20215
:100180001092A3021092A4020895009739F028E873
:1001900033E1F9013197F1F70197D9F708951F92EB
:1001A0000F920FB60F9211242F933F934F935F93AB
:1001B0008F939F93AF93BF93EF93FF9380919C0294
:1001C000880F880F8C7080939C0223B12170282B9C
:1001D00020939C0283B190E0969587958170880F5B
:1001E000822B80939C02E82FF0E0EE59FE4F808135
:1001F000803841F12091A1023091A2024091A302E6
:100200005091A402992787FD9095A92FB92F820FAD
:10021000931FA41FB51F8093A1029093A202A093E5
:10022000A302B093A402FF91EF91BF91AF919F9170
:100230008F915F914F913F912F910F900FBE0F9033
:100240001F9018958091AA029091AB02019690930D
:10025000AB028093AA02E7CF9F92AF92BF92CF9258
:10026000DF92EF92FF920F931F93CF93DF935B0187
:100270006C0160919D0270919E0280919F0290910D
:10028000A0026A0D7B1D8C1D9D1D60939D027093C5
:100290009E0280939F029093A002653823E072072C
:1002A00020E0820720E092070CF45EC084E893E02F
:1002B000A0E0B0E080939D0290939E02A0939F02E5
:1002C000B093A00264E873E080E090E02CE030E0BE
:1002D00040E050E00E94CC070E944D052AE037ED37
:1002E00043EA5CE30E9453040E94AB057B018C014E
:1002F000DC01CB018A0D9B1DAC1DBD1D8F3F9105FF
:10030000A105B10511F00CF049C0B7FD4CC09E2C01
:100310009A0CC92DD0E0C5010E94030480E091E051
:100320000E94A103C5010E94030480E091E00E94A5
:10033000A103C7010E94030480E091E00E94A10391
:10034000CE010E94030480E091E00E94A10397BCCB
:10035000DF91CF911F910F91FF90EF90DF90CF90A1
:10036000BF90AF909F9008956C372CEF72072FEFDE
:1003700082072FEF92070CF0A9CF8CE79CEFAFEF2D
:10038000BFEF80939D0290939E02A0939F02B09333
:10039000A0026CE77CEF8FEF9FEF98CF99249A949F
:1003A000CFEFD0E0B8CF9924C0E0D0E0B4CF2F9207
:1003B0003F924F925F926F927F928F929F92AF92F5
:1003C000BF92CF92DF92EF92FF920F931F93DF9332
:1003D000CF9300D000D00F92CDB7DEB7559A569A82
:1003E00084B5836084BD84B5806884BD85B5826032
:1003F00085BD17BC0E9425031092C50080E4809340
:10040000C40088E18093C10086E08093C20080919F
:100410006B00836080936B0081E080936800109292
:10042000A1021092A2021092A3021092A402579A63
:100430005F9A1092A1021092A2021092A30210924F
:10044000A4021092A6021092A7021092A802109283
:10045000A9021092AB021092AA0210929D02109271
:100460009E0210929F021092A0021092B10210926E
:10047000B00282E091E00E94A1038091C00085FF5C
:10048000FCCF78940E9430033324CC241982222498
:100490007B018C0184E190E0A0E0B0E0E80EF91E61
:1004A0000A1F1B1F0E943003E616F70608071907EC
:1004B000C8F7DFB6F8948090A1029090A202A090B5
:1004C000A302B090A4028091A6029091A702A091ED
:1004D000A802B091A90224013501481A590A6A0AF2
:1004E0007B0AE090B002F090B10200E010E0E41866
:1004F000F508060917098092A6029092A702A09219
:10050000A802B092A9020E9430036A837B838C8385
:100510009D83DFBE8BB180588BB9C801B7010E94A3
:100520002C0192E0C91661F1C394832D90E08C01F7
:100530009093B1028093B002C4010E94030480E052
:1005400091E00E94A1038091AA029091AB020E94C7
:10055000030480E091E00E94A103C2010E94030411
:1005600080E091E00E94A103C8010E9403048FE58E
:1005700091E00E94A103EA80FB800C811D818ACF5B
:10058000291669F1921558F0222009F442C0A1E021
:100590002A1699F1832D90E08C01CC24C9CFB3E0C9
:1005A0002B1679F0E4E02E16A9F73A94BEE1B315C4
:1005B00088F33324CC24222480E090E000E010E093
:1005C000B7CF89818C3391F1A82FAF5FA9834EE615
:1005D000342ECC248EE690E00EE610E0A9CFB9814F
:1005E000B83249F1FB2FFF5FF98333243A94CC24CE
:1005F0008FEF90E00FEF10E09BCF3394AFEF3A1600
:1006000049F6CC2472E0272E8FEF90E00FEF10E038
:100610008FCFF981F832A1F09F2F9F5F9983332408
:10062000CC2480E090E000E010E082CF54E0252E62
:1006300091E09983CCCF63E0262EE1E0E983D5CF2A
:100640002224239481E08983EACF1092B00082E0D3
:100650008093B100E0E7F0E08081816080830895BD
:100660006091AC027091AD028091AE029091AF02A8
:100670002091A502982F872F762F6627620F711D74
:10068000811D911D24E230E040E050E00E94EB0724
:10069000CA01B90108959091A502980F8091A50211
:1006A0008917E1F70895BC011816190674F440E0A3
:1006B00050E02091A5022C5D8091A5022817E1F75A
:1006C0004F5F5F4F46175707A4F308951F920F928D
:1006D0000FB60F9211248F939F93AF93BF93809186
:1006E000B20085548093B2008091A5028F5F809301
:1006F000A5028091A502882399F48091AC02909183
:10070000AD02A091AE02B091AF020196A11DB11D44
:100710008093AC029093AD02A093AE02B093AF026F
:10072000BF91AF919F918F910F900FBE0F901F902F
:100730001895982F8091C00085FFFCCF9093C6003C
:100740000895FC019081992351F031968091C00069
:1007500085FFFCCF9093C60090819923B1F708954F
:10076000FC019491992351F08091C00085FFFCCF4A
:100770009093C600319694919923B1F708951F92F2
:100780000F920FB60F9211242F933F934F935F93C5
:100790006F937F938F939F93AF93BF93EF93FF9349
:1007A0006091C6008CEB92E00E945D008091C000D9
:1007B00085FFFCCFFF91EF91BF91AF919F918F91FA
:1007C0007F916F915F914F913F912F910F900FBE4D
:1007D0000F901F901895DF93CF930F92CDB7DEB790
:1007E0008CEB92E0BE016F5F7F4F0E947800882300
:1007F00029F489810F90CF91DF9108958FEF0F90A9
:10080000CF91DF9108950F931F93DF93CF93CDB7CF
:10081000DEB72B970FB6F894DEBF0FBECDBF8E01AB
:100820000F5F1F4FB8014AE050E00E949B0799817B
:10083000992359F0F80131968091C00085FFFCCFD3
:100840009093C60090819923B1F72B960FB6F89438
:10085000DEBF0FBECDBFCF91DF911F910F910895E5
:100860008EE08093C2001092C50080E48093C400A3
:1008700088E18093C10086E48093C200E2E7F1E062
:1008800095E531968091C00085FFFCCF9093C6001E
:1008900090819923B1F78CEB92E062EB72E04AE031
:1008A0000E9453000895A0E2B0E0E9E5F4E00C9462
:1008B0000D0869837A838B839C832D833E834F83CA
:1008C0005887CE010196BE01675F7F4F0E942307C4
:1008D000CE010596BE016F5E7F4F0E94230799856A
:1008E000923088F089898230C8F0943019F48230CF
:1008F00051F404C0843029F4923081F484E991E009
:10090000C6C0923049F420E09A858A89981321E084
:100910002A87CE010996BBC0823049F420E09A852F
:100920008A89981321E02A8BCE014196B0C02D848C
:100930003E844F8458886D887E888F88988CEE24FA
:10094000FF248701AA24BB24650140E050E060E059
:1009500070E0E0E0F0E0C10181709070892BE9F077
:10096000E60CF71C081D191D9A01AB012A0D3B1D51
:100970004C1D5D1D80E090E0A0E0B0E0E614F704BF
:100980000805190520F481E090E0A0E0B0E0BA018C
:10099000A901480F591F6A1F7B1FAA0CBB1CCC1C46
:1009A000DD1C97FE08C081E090E0A0E0B0E0A82A3E
:1009B000B92ACA2ADB2A3196E032F10549F0660CE1
:1009C000771C881C991C5694479437942794C3CF5E
:1009D000FA85EA892B893C898B859C85280F391FEC
:1009E0002E5F3F4F17C0CA0181709070892B61F054
:1009F00016950795F794E79480E090E0A0E0B0E8C2
:100A0000E82AF92A0A2B1B2B769567955795479567
:100A10002F5F3F4F77FDE7CF0CC0440F551F661F78
:100A2000771F17FD4160EE0CFF1C001F111F2150A6
:100A30003040403090E0590790E0690790E4790732
:100A400060F32B8F3C8FDB01CA018F779070A07011
:100A5000B07080349105A105B10561F447FD0AC06D
:100A6000E114F1040105110529F0405C5F4F6F4F5F
:100A70007F4F40781A8EFE1711F081E08A8F4D8FDC
:100A80005E8F6F8F78A383E0898FCE0149960E9495
:100A90004E06A096E2E10C942908A8E0B0E0E3E558
:100AA000F5E00C9416089B01AC0183E08983DA0120
:100AB000C9018827B7FD83959927AA27BB27B82E98
:100AC000211531054105510519F482E089833AC0A9
:100AD0008823A9F0203080E0380780E0480780E8CC
:100AE000580729F460E070E080E09FEC30C0EE240D
:100AF000FF248701E21AF30A040B150B02C07901E7
:100B00008A018EE1C82ED12CDC82CB82ED82FE825E
:100B10000F831887C801B7010E94FF0501971816B7
:100B2000190684F4082E04C0EE0CFF1C001F111FD0
:100B30000A94D2F7ED82FE820F831887C81AD90A69
:100B4000DC82CB82BA82CE0101960E944E062896A4
:100B5000E9E00C943208ACE0B0E0E1EBF5E00C9495
:100B60001D0869837A838B839C83CE010196BE0125
:100B70006B5F7F4F0E9423078D81823061F182304D
:100B800050F1843021F48E81882351F12EC02F81C1
:100B9000388537FD20C06E812F3131051CF066236A
:100BA000F9F023C08EE190E0821B930B29853A85F2
:100BB0004B855C8504C056954795379527958A9552
:100BC000D2F76623B1F050954095309521953F4F6F
:100BD0004F4F5F4F0EC020E030E040E050E009C0D2
:100BE0002FEF3FEF4FEF5FE704C020E030E040E041
:100BF00050E8B901CA012C96E2E00C943908EF9252
:100C0000FF920F931F937B018C0180E0E81680E038
:100C1000F80681E0080780E0180788F48FEFE816EF
:100C2000F1040105110531F028F088E090E0A0E022
:100C3000B0E017C080E090E0A0E0B0E012C080E03B
:100C4000E81680E0F80680E0080781E0180728F041
:100C500088E190E0A0E0B0E004C080E190E0A0E096
:100C6000B0E020E230E040E050E0281B390B4A0BB6
:100C70005B0B04C016950795F794E7948A95D2F715
:100C8000F701E456FE4F8081281B310941095109C3
:100C9000C9011F910F91FF90EF900895DF92EF929D
:100CA000FF920F931F93FC01E480F580068117816A
:100CB000D1808081823048F480E090E0A0E1B0E013
:100CC000E82AF92A0A2B1B2BA5C0843009F49FC0FF
:100CD000823021F4EE24FF24870105C0E114F104E1
:100CE0000105110519F4E0E0F0E096C0628173811E
:100CF0009FEF623879070CF05BC022E83FEF261BBC
:100D0000370B2A3131052CF020E030E040E050E094
:100D10002AC0B801A701022E04C0769567955795A1
:100D200047950A94D2F781E090E0A0E0B0E004C0DB
:100D3000880F991FAA1FBB1F2A95D2F70197A109F7
:100D4000B1098E219F21A023B1230097A105B105F0
:100D500021F081E090E0A0E0B0E09A01AB01282B07
:100D6000392B4A2B5B2BDA01C9018F779070A07069
:100D7000B07080349105A105B10539F427FF09C091
:100D8000205C3F4F4F4F5F4F04C0215C3F4F4F4FA0
:100D90005F4FE0E0F0E02030A0E03A07A0E04A0733
:100DA000A0E45A0710F0E1E0F0E079018A0127C0E1
:100DB0006038710564F5FB01E158FF4FD801C701A8
:100DC0008F779070A070B07080349105A105B10547
:100DD00039F4E7FE0DC080E490E0A0E0B0E004C08C
:100DE0008FE390E0A0E0B0E0E80EF91E0A1F1B1FA1
:100DF00017FF05C016950795F794E794319687E09D
:100E000016950795F794E7948A95D1F705C0EE24D7
:100E1000FF248701EFEFF0E06E2F67956627679557
:100E2000902F9F77D794DD24D7948E2F8695492FC6
:100E3000462B582F5D29B701CA011F910F91FF90D2
:100E4000EF90DF900895FC01DB0140815181228108
:100E5000622F6F7770E0221F2227221F9381892F34
:100E6000880F822B282F30E0991F9927991F119600
:100E70009C93119721153105A9F54115510561057F
:100E8000710511F482E037C082E89FEF13969C93BE
:100E90008E9312979A01AB0167E0220F331F441F14
:100EA000551F6A95D1F783E08C930DC0220F331F35
:100EB000441F551F12968D919C911397019713967D
:100EC0009C938E931297203080E0380780E048078B
:100ED00080E4580758F314962D933D934D935C93FB
:100EE000179708952F3F310579F441155105610594
:100EF000710519F484E08C93089564FF03C081E0C8
:100F00008C9312C01C9210C02F57304013963C9304
:100F10002E93129783E08C9387E0440F551F661F32
:100F2000771F8A95D1F7706414964D935D936D93F6
:100F30007C9317970895FB019F01E8944230C4F019
:100F40004532B4F44A3029F497FB1EF4909581950C
:100F50009F4F642F77270E944408805D8A330CF0EE
:100F6000895D8193CB010097A1F716F45DE251935F
:100F70001082C9010C94BC07DC01FC01672F719140
:100F80007723E1F7329704C07C916D93708362916F
:100F9000AE17BF07C8F30895629FD001739FF00199
:100FA000829FE00DF11D649FE00DF11D929FF00DF9
:100FB000839FF00D749FF00D659FF00D9927729F30
:100FC000B00DE11DF91F639FB00DE11DF91FBD01BB
:100FD000CF0111240895A1E21A2EAA1BBB1BFD010B
:100FE0000DC0AA1FBB1FEE1FFF1FA217B307E40708
:100FF000F50720F0A21BB30BE40BF50B661F771F60
:10100000881F991F1A9469F760957095809590953F
:101010009B01AC01BD01CF0108952F923F924F92E9
:101020005F926F927F928F929F92AF92BF92CF9278
:10103000DF92EF92FF920F931F93CF93DF93CDB781
:10104000DEB7CA1BDB0B0FB6F894DEBF0FBECDBFF9
:1010500009942A88398848885F846E847D848C84CA
:101060009B84AA84B984C884DF80EE80FD800C81D3
:101070001B81AA81B981CE0FD11D0FB6F894DEBFB6
:101080000FBECDBFED010895AA1BBB1B51E107C0E8
:10109000AA1FBB1FA617B70710F0A61BB70B881F08
:1010A000991F5A95A9F780959095BC01CD01089597
:0410B000F894FFCFE2
:1010B40009005265676C657261627765696368757A
:1010C4006E6709502D416E7465696C09492D416E36
:1010D4007465696C095374656C6C77657274095333
:1010E400756D5F466C616E6B656E0953756D5F451A
:1010F4006E635F4665686C6572094973742D576544
:10110400727409536F6C6C2D576572740D0A000D5F
:101114000A0000FF0180010080FFFF8000018001C0
:10112400FF0055617274207775726465207269637B
:101134006874696720696E697469616C697369654B
:1011440072740A00000000000000000000010202A6
:10115400030303030404040404040404050505054B
:101164000505050505050505050505050606060627
:10117400060606060606060606060606060606060B
:1011840006060606060606060606060607070707F7
:1011940007070707070707070707070707070707DB
:1011A40007070707070707070707070707070707CB
:1011B40007070707070707070707070707070707BB
:1011C40007070707070707070707070708080808A7
:1011D400080808080808080808080808080808088B
:1011E400080808080808080808080808080808087B
:1011F400080808080808080808080808080808086B
:10120400080808080808080808080808080808085A
:10121400080808080808080808080808080808084A
:10122400080808080808080808080808080808083A
:10123400080808080808080808080808080808082A
:0C1244000808080808080808080808083E
:00000001FF
