:100000000C942A000C9447000C9447000C94470071
:100010000C9447000C9447000C9447000C94470044
:100020000C9447000C9447000C9447000C94470034
:100030000C9447000C9447000C9447000C94470024
:100040000C9447000C9447000C9447000C94470014
:100050000C94470011241FBECFE5D4E0DEBFCDBF16
:1000600010E0A0E6B0E0E2ECF0E002C005900D92F6
:10007000A036B107D9F710E0A0E6B0E001C01D92AC
:10008000A036B107E1F70E9455000C9460000C9473
:1000900000009C0106C08AEF90E00197F1F7215023
:1000A000304021153105B9F708958FEF84BB15BA9B
:1000B00085B38F5F85BB88EE93E00E944900F8CF3F
:0200C000FFCF70
:00000001FF
