:100000000C942A000C9445000C9445000C94450077
:100010000C9445000C9445000C9445000C9445004C
:100020000C9445000C9445000C9445000C94B500CC
:100030000C9445000C9445000C9445000C9445002C
:100040000C9445000C9445000C9445000C9445001C
:100050000C94450011241FBECFE5D4E0DEBFCDBF18
:1000600011E0A0E6B0E0ECEBF1E002C005900D92EB
:10007000A030B107D9F711E0A0E0B1E001C01D92B6
:10008000A030B107E1F70C9447000C940000CFE5D5
:10009000D4E0DEBFCDBF0E945F00789480E690E0A0
:1000A0000E9490008BE890E00E94900085EB90E029
:1000B0000E94900080EE90E00E949000FFCFCF93CE
:1000C000DF93CDB7DEB71092400085E08093290022
:1000D00088E980932A0086E880934000DF91CF91E1
:1000E0000895CF93DF93CDB7DEB721970FB6F8947D
:1000F000DEBF0FBECDBF898380912B009927807210
:100100009070009709F4F8CF898180932C00219694
:100110000FB6F894DEBF0FBECDBFDF91CF9108952B
:10012000CF93DF93CDB7DEB722970FB6F894DEBF3B
:100130000FBECDBF9A838983E981FA8180818823AC
:1001400059F0E981FA8180810E94710089819A8148
:1001500001969A838983F0CF22960FB6F894DEBF7A
:100160000FBECDBFDF91CF9108951F920F920FB6B2
:100170000F9211248F939F93CF93DF93CDB7DEB768
:100180002197DEBFCDBF80912C00898380912B0009
:10019000992780729070009709F4F8CF8981809335
:1001A0002C002196F894DEBFCDBFDF91CF919F91B7
:0C01B0008F910F900FBE0F901F901895BC
:1001BC000D202A2A2A2020202020202020206261A5
:1001CC006C616E636520426F7420202020202020FB
:1001DC002020202020202A2A2A0D00202A2A2048EC
:1001EC006965722077657264656E207A7520446546
:1001FC006275677A7765636B656E202020202020FE
:10020C00202A2A0D00202A2A2065696E696765203C
:10021C007374617475736D656C64756E67656E204F
:10022C006175736765676562656E202A2A0D0D001E
:10023C00205541525420696E697A69616C69736901
:10024C006572756E67202E2E2E204F4B200D0000F0
:00000001FF
