:100000000C942A000C9447000C9447000C94470071
:100010000C9447000C9447000C9447000C94470044
:100020000C9447000C9447000C9447000C945C041B
:100030000C9447000C9447000C9447000C94470024
:100040000C9447000C9447000C9447000C94470014
:100050000C94470011241FBECFE5D4E0DEBFCDBF16
:1000600010E0A0E6B0E0E4E2FEE002C005900D92F0
:10007000A638B107D9F710E0A6E8B0E001C01D929C
:10008000A839B107E1F70E941F020C9411070C94E4
:100090000000EF92FF920F931F938C01C498892F59
:1000A00099270E944604E82E802F0E944604C49A95
:1000B000FF24FE2CEE24E80EF11CC7011F910F91C6
:1000C000FF90EF9008950F931F93C49880E00E94D3
:1000D0004604082F80E00E944604C49A1127102F7E
:1000E0000027080F111DC8011F910F910895FF925D
:1000F0000F931F93C498000054E2F52E03C08F2D78
:100100008A95F1F7C49880E00E944604082F80E0A9
:100110000E944604C49A1127102F0027080F111DB2
:1001200017FFEDCFC49A1F910F91FF900895DF92B2
:10013000EF92FF920F931F93CF93DF93EC01D62E94
:10014000662341F1EE24C498000074E2F72E03C048
:100150008F2D8A95F1F7C49880E00E944604082FFD
:1001600080E00E944604C49A1127102F0027080F30
:10017000111D17FFEDCFC49AC49880EB0E9446046E
:1001800080E00E944604C49A8883E394DE1411F050
:100190002196D9CFDF91CF911F910F91FF90EF90D2
:1001A000DF900895DF92EF92FF920F931F93CF930A
:1001B000DF93EC01D62EC49882E80E94460488E3BF
:1001C0000E944604C49AC498000024E2F22E03C0A0
:1001D0008F2D8A95F1F7C49880E00E944604082F7D
:1001E00080E00E944604C49A1127102F0027080FB0
:1001F000111D17FFEDCFC49AC49888EB0E944604E6
:100200008AEA0E944604C49AC498000014E2F12EBF
:1002100003C08F2D8A95F1F7C49880E00E944604B0
:10022000082F80E00E944604C49A1127102F00274F
:10023000080F111D17FFEDCFC49AC49888EB0E94D8
:1002400046048AEA0E944604C49AC4980000A4E2C4
:10025000FA2E03C08F2D8A95F1F7C49880E00E9492
:100260004604082F80E00E944604C49A1127102FEC
:100270000027080F111D17FFEDCFC49AC49888EB13
:100280000E9446048AEA0E944604C49AC498000068
:10029000E4E2FE2E03C08F2D8A95F1F7C49880E02A
:1002A0000E944604082F80E00E944604C49A112749
:1002B000102F0027080F111D17FFEDCFC49AC49807
:1002C00088EB0E9446048DE20E944604C49AC498BA
:1002D000000064E2F62E03C08F2D8A95F1F7C498D2
:1002E00080E00E944604082F80E00E944604C49AE1
:1002F0001127102F0027080F111D17FFEDCFC49AEB
:10030000C49888EB0E94460484ED0E944604C49A77
:10031000DD2051F1EE24C498000044E2F42E03C025
:100320008F2D8A95F1F7C49880E00E944604082F2B
:1003300080E00E944604C49A1127102F0027080F5E
:10034000111D17FFEDCFC49A08811127C498186BAF
:1003500088EB0E944604802F0E944604C49AE394CE
:10036000DE1411F02196D7CFC498000024E2F22EBB
:1003700003C08F2D8A95F1F7C49880E00E9446044F
:10038000082F80E00E944604C49A1127102F0027EE
:10039000080F111D17FFEDCFC49AC49888EB0E9477
:1003A000460480E00E944604C49AC4980000B4E267
:1003B000FB2E03C08F2D8A95F1F7C49880E00E9430
:1003C0004604082F80E00E944604C49A1127102F8B
:1003D0000027080F111D17FFEDCFC49AC49888EBB2
:1003E0000E94460480E00E944604C49AC49800001B
:1003F000F4E2FF2E03C08F2D8A95F1F7C49880E0B8
:100400000E944604082F80E00E944604C49A1127E7
:10041000102F0027080F111D17FFEDCFC49AC498A5
:1004200082E80E94460488E00E944604C49ADF9154
:10043000CF911F910F91FF90EF90DF900895CF9291
:10044000DF92EF92FF920F931F93CF93DF93CDB77D
:10045000DEB721970FB6F894DEBF0FBECDBFBB9AB3
:10046000C3980E94E804C49A0E943904C49880E0AA
:100470000E944604082F80E00E944604C49A112777
:10048000102F0027080F111D4FE0E42EF12CC8019A
:100490000E2C02C0969587950A94E2F781709070B1
:1004A0000E94B2040894E108F1088FEFE8168FEF7C
:1004B000F80669F780E690E00E945004C49880E84E
:1004C0000E94460487ED0E944604C49AC49886EAB6
:1004D0000E94460480E20E944604C49AC49886ECB6
:1004E0000E94460481E20E944604C49AC49884E9AA
:1004F0000E9446048CE80E944604C49AC49882EC88
:100500000E9446048BEA0E944604C49AC4988AEC6E
:100510000E94460481E80E944604C49AC49888E96F
:100520000E94460480E30E944604C49AC49880EC6A
:100530000E9446048CEF0E944604C49AC49888EC3A
:100540000E94460480E00E944604C49AC49884EC49
:100550000E94460487EF0E944604C49AC49880E033
:100560000E944604082F80E00E944604C49A112786
:10057000102F0027080F111D2FE0E22EF12CC801CB
:100580000E2C02C0969587950A94E2F781709070C0
:100590000E94B2040894E108F1088FEFE8168FEF8B
:1005A000F80669F780E690E00E945004C49888EB52
:1005B0000E9446048AEA0E944604C49AC49880E0D5
:1005C0000E944604082F80E00E944604C49A112726
:1005D000102F0027080F111D8FE0E82EF12CC80105
:1005E0000E2C02C0969587950A94E2F78170907060
:1005F0000E94B2040894E108F1088FEFE8168FEF2B
:10060000F80669F780E690E00E94500480E090E0F0
:1006100000000196893C9105D9F7C49880E00E94BA
:100620004604082F80E00E944604C49A1127102F28
:100630000027080F111DAFE0EA2EF12CC8010E2C87
:1006400002C0969587950A94E2F7817090700E9497
:10065000B2040894E108F1088FEFE8168FEFF8066E
:1006600069F780E690E00E945004C49888EB0E94ED
:1006700046048AEA0E944604C49AC49888EB0E9401
:1006800046048AEA0E944604C49AC49882E80E94FA
:10069000460488EC0E944604C49AC4988AEC0E94DE
:1006A000460481E80E944604C49AC4988AEC0E94D9
:1006B000460483E80E944604C49A809163008983BB
:1006C0006E010894C11CD11C88B398E0892788BBAF
:1006D000C49880E00E944604082F80E00E944604EF
:1006E000C49A1127102F0027080F111DC801882751
:1006F000990F881F99270E94B204C80184E0989F2F
:10070000812D99271124817090700E94B204C80134
:10071000892F9927829586958770817090700E94A5
:10072000B204C801892F992782958F7081709070CB
:100730000E94B204C801892F9927869586958695CF
:10074000817090700E94B204C801892F9927869504
:100750008695817090700E94B204C801892F9927F4
:100760008695817090700E94B204812F99278170C4
:1007700090700E94B204C801880F892F881F990BBE
:100780009195817090700E94B204C8010024880F76
:10079000991F001C880F991F001C892F902D8170B4
:1007A00090700E94B204C8019695879592958295A3
:1007B0008F7089279F708927817090700E94B20482
:1007C000C801929582958F7089279F7089278170C3
:1007D00090700E94B204C80196958795969587956A
:1007E00096958795817090700E94B204C801969585
:1007F000879596958795817090700E94B204C80184
:1008000096958795817090700E94B204C80181709E
:1008100090700E94B20480E690E00E945004C49858
:10082000000044E2F42E03C08F2D8A95F1F7C4989E
:1008300080E00E944604082F80E00E944604C49A8B
:100840001127102F0027080F111D17FFEDCFC49A95
:10085000C49880EB0E94460480E00E944604C49A3B
:100860008983C6010E94500480E690E00E945004F3
:100870002BCF87B3806A87BB88B38F7188BBBC9A44
:10088000C49880E58DB981E08EB908958FB9779BC2
:10089000FECF8FB1992708955D9BFECF8CB9089547
:1008A000FC018081882339F031965D9BFECF8CB9A5
:1008B00080818823C9F708951F920F920FB60F9277
:1008C00011241F932F933F934F935F936F937F93C5
:1008D0008F939F93AF93BF93EF93FF931CB1612FBF
:1008E00080E990E00E9440065D9BFECF1CB9FF911D
:1008F000EF91BF91AF919F918F917F916F915F9198
:100900004F913F912F911F910F900FBE0F901F900D
:1009100018950F931F93CF93DF93CDB7DEB7219731
:100920000FB6F894DEBF0FBECDBF8C01BE016F5F66
:100930007F4F80E990E00E946506882331F4898129
:10094000F801808381E090E002C080E090E0219691
:100950000FB6F894DEBF0FBECDBFDF91CF911F91D0
:100960000F9108950F931F93CF93DF93CDB7DEB709
:1009700027970FB6F894DEBF0FBECDBF4AE050E018
:100980008E010F5F1F4FB8010E948B06898188235B
:1009900041F0F80131965D9BFECF8CB980818823B0
:1009A000C9F727960FB6F894DEBF0FBECDBFDF9113
:1009B000CF911F910F910895FC018491882339F004
:1009C0005D9BFECF8CB9319684918823C9F7089539
:1009D00010BC85E089B988E98AB986E880BDE4E67B
:1009E000F0E08091640031965D9BFECF8CB98081F0
:1009F0008823C9F74AE066E870E080E990E00E9449
:100A0000360608952F923F924F925F926F927F9297
:100A10008F929F92AF92BF92CF92DF92EF92FF920E
:100A20000F931F93CF93DF93CDB7DEB727970FB602
:100A3000F894DEBF0FBECDBFA114B104C104D10430
:100A400009F4FBC0C601B50128EE33E040E050E0F8
:100A50000E94DB0639014A01CA01B9012CE330E0EA
:100A600040E050E00E94DB0659016A01CA01B90169
:100A70002CE330E040E050E00E94DB0679018A017F
:100A8000222E33248CE390E09C01229EC001239E01
:100A9000900D329E900D1124AA2797FDA095BA2F94
:100AA000A81AB90ACA0ADB0AC601B5012CE330E06C
:100AB00040E050E00E94BC0620E13EE0A901249EF7
:100AC0009001259E300D349E300D1124442737FDB2
:100AD0004095542F260F371F481F591F621A730A5B
:100AE000840A950A59E05E1508F098C04AE050E083
:100AF0002E010894411C511CB201C1010E948B06B9
:100B00008981882341F0F20131965D9BFECF8CB93B
:100B100080818823C9F75D9BFECF8AE38CB98AE088
:100B2000A816B104C104D10408F47DC04AE050E025
:100B3000B201C5010E948B068981882341F0F20130
:100B400031965D9BFECF8CB980818823C9F75D9B70
:100B5000FECF8AE38CB92AE0621671048104910405
:100B600008F466C04AE050E0B201C3010E948B065F
:100B70008981882341F0F20131965D9BFECF8CB9CB
:100B800080818823C9F75D9BFECF8AE38CB9C401BD
:100B9000B30128EE33E040E050E00E94BC067B0148
:100BA0008C01C601B50120E63AEE40E050E00E941B
:100BB000BC0620E83EEEA901249E9001259E300D42
:100BC000349E300D1124442737FD4095542F260FB5
:100BD000371F481F591F2E0D3F1D401F511FA21ABE
:100BE000B30AC40AD50AC601B50124E630E040E0E4
:100BF00050E00E94DB06DA01C9014AE050E0B20190
:100C00000E948B0689818823C1F0F20131965D9B99
:100C1000FECF8CB980818823C9F70FC05D9BFECFC2
:100C200080E38CB963CF5D9BFECF80E38CB97ECF30
:100C30005D9BFECF80E38CB995CF27960FB6F894D5
:100C4000DEBF0FBECDBFDF91CF911F910F91FF90FF
:100C5000EF90DF90CF90BF90AF909F908F907F905C
:100C60006F905F904F903F902F900895FC011082FD
:100C700075836483738362834183478346830895C6
:100C8000CF93DF93DC019C91ED0189819817C0F42B
:100C90009FB7F894ED01EC81FD8161938F818150C4
:100CA00059F0ED018F83FD83EC838C918F5F8C93E2
:100CB0009FBF81E090E006C08981E81BF109F1CF78
:100CC00080E090E0DF91CF910895CF93DF93DC0136
:100CD0008C918823D9F02FB7F894ED01EA81FB813C
:100CE0009E818191EB018883915059F0ED01FB8346
:100CF000EA839E838C9181508C932FBF80E090E09B
:100D000007C0ED019981E91BF109F0CF81E090E086
:100D1000DF91CF910895FB019F01E8944230C4F028
:100D20004532B4F44A3029F497FB1EF4909581952E
:100D30009F4F642F77270E94FD06805D8A330CF059
:100D4000895D8193CB010097A1F716F45DE2519381
:100D50001082C9010C94AC06DC01FC01672F719173
:100D60007723E1F7329704C07C916D937083629191
:100D7000AE17BF07C8F30895629FD001739FF001BB
:100D8000829FE00DF11D649FE00DF11D929FF00D1B
:100D9000839FF00D749FF00D659FF00D9927729F52
:100DA000B00DE11DF91F639FB00DE11DF91FBD01DD
:100DB000CF0111240895A1E21A2EAA1BBB1BFD012D
:100DC0000DC0AA1FBB1FEE1FFF1FA217B307E4072A
:100DD000F50720F0A21BB30BE40BF50B661F771F82
:100DE000881F991F1A9469F7609570958095909562
:100DF0009B01AC01BD01CF010895AA1BBB1B51E1B2
:100E000007C0AA1FBB1FA617B70710F0A61BB70B7A
:100E1000881F991F5A95A9F780959095BC01CD011F
:040E20000895FFCF63
:100E24000A0D000055617274207775726465207232
:100E340069636874696720696E697469616C697350
:060E4400696572740A00EA
:00000001FF
