:100000000C942A000C9447000C9447000C94470071
:100010000C9447000C9447000C9447000C94470044
:100020000C9447000C9447000C9447000C94470034
:100030000C9447000C9447000C9447000C94470024
:100040000C9447000C9447000C9447000C94470014
:100050000C94470011241FBECFE5D4E0DEBFCDBF16
:1000600010E0A0E6B0E0E4ECF1E002C005900D92F3
:10007000A036B107D9F710E0A0E6B0E001C01D92AC
:10008000A036B107E1F70E9449000C94E1000C94FE
:1000900000000F931F93CF93DF93CDB7DEB7E4E358
:1000A000F0E08FEF8083E5E3F0E01082A7E3B0E0BB
:1000B000E7E3F0E080818C608C93A8E3B0E0E8E3B4
:1000C000F0E080818C608C93AAE3B0E0EAE3F0E09A
:1000D0008081867F8C93EBE3F0E081E080837894ED
:1000E00005E310E083E00E947800F8018083F8CFF8
:1000F000CF93DF93CDB7DEB724970FB6F894DEBF6A
:100100000FBECDBF8C831A821982E6E2F0E087E849
:100110008083E7E2F0E08C818083A7E2B0E0E7E251
:10012000F0E08081806C8C93A6E2B0E0E6E2F0E043
:10013000808180648C93E6E2F0E08081992780746E
:1001400090700097C1F71B821CC0A6E2B0E0E6E207
:10015000F0E0808180648C93E6E2F0E08081992772
:10016000807490700097C1F7E4E2F0E02081318163
:1001700089819A81820F931F9A8389838B818F5FF4
:100180008B838B81883008F3A6E2B0E0E6E2F0E0F2
:1001900090818FE789238C9389819A8196958795A1
:1001A00096958795969587959A83898389819A8173
:1001B00024960FB6F894DEBF0FBECDBFDF91CF916E
:0401C0000895FFCFD0
:00000001FF
