:100000000C942A000C9445000C9445000C94450077
:100010000C9445000C9445000C9445000C9445004C
:100020000C9445000C9445000C9445000C9445003C
:100030000C9445000C9445000C9445000C9445002C
:100040000C9445000C9445000C9445000C9445001C
:100050000C94450011241FBECFE5D4E0DEBFCDBF18
:1000600010E0A0E6B0E0E8E2F8E002C005900D92F2
:10007000A036B107D9F710E0A0E6B0E001C01D92AC
:10008000A136B107E1F70C9447000C940000CFE3D0
:10009000D4E0DEBFCDBF80913A00867F80933A00E6
:1000A00080913B00816080933B008CE00E94920332
:1000B000789483E00E94AF009A8389839E012D5F2C
:1000C0003F4F89819A8196958795969587954AE0C5
:1000D00050E0B9010E94CF03CE0103960E94EB02CB
:1000E0000E9475000E943603E4CFCF93DF93CDB713
:1000F000DEB724970FB6F894DEBF0FBECDBF809158
:10010000390089831C821B828B819C812FEF8F3F5A
:10011000920731F08B819C8101969C838B83F4CF75
:10012000809139008A8399818A8189238983898191
:10013000992781709070009709F0E1CF8091390084
:10014000992781709070009709F4F8CF24960FB624
:10015000F894DEBF0FBECDBFDF91CF910895CF934E
:10016000DF93CDB7DEB724970FB6F894DEBF0FBE8E
:10017000CDBF89831C821B8283E8809326008981FE
:1001800080932700809127008064809327008091CE
:100190002600806480932600809126009927807431
:1001A0009070009709F0F8CF8B819C8120912400FA
:1001B00030912500820F931F9C838B831A828A8142
:1001C0008430D8F48091260080648093260080914A
:1001D0002600992780749070009709F0F8CF2B8142
:1001E0003C818091240090912500820F931F9C8375
:1001F0008B838A818F5F8A83E2CF9FE7809126007D
:100200008923809326008B819C819695879596956E
:1002100087959C838B838B819C8124960FB6F89461
:10022000DEBF0FBECDBFDF91CF910895CF93DF9397
:10023000CDB7DEB780916000282F332781E090E0B2
:1002400002C0880F991F2A95E2F720913500822B72
:100250008093350000C080916000282F332781E013
:1002600090E002C0880F991F2A95E2F7982F909589
:1002700080913500892380933500DF91CF910895D7
:10028000CF93DF93CDB7DEB722970FB6F894DEBFDA
:100290000FBECDBF89836A838A81882331F0809124
:1002A000350081608093350005C0809135008E7FD8
:1002B00080933500809135008D7F8093350080914B
:1002C0003400806F809334009FE080913500292FA7
:1002D000282390EF89818923822B809335000E9407
:1002E00016019FE080913500292F282389819927C5
:1002F0008F70907082959295907F9827807F982735
:10030000822B809335000E9416019FE0809135007A
:10031000982380EF892B8093350022960FB6F894AE
:10032000DEBF0FBECDBFDF91CF910895CF93DF9396
:10033000CDB7DEB722970FB6F894DEBF0FBECDBFA4
:1003400089838981882331F0809135008160809391
:10035000350005C0809135008E7F809335008091F7
:1003600035008260809335009FE0809134008923BE
:100370008093340080916000282F332781E090E043
:1003800002C0880F991F2A95E2F720913500822B31
:100390008093350000C090EF8091330089238A83D9
:1003A00080916000282F332781E090E002C0880F01
:1003B000991F2A95E2F7982F90958091350089230F
:1003C0008093350000C080916000282F332781E0A2
:1003D00090E002C0880F991F2A95E2F7209135001E
:1003E000822B8093350000C08091330082958F70FE
:1003F000982F9F708A81892B8A8380916000282F93
:10040000332781E090E002C0880F991F2A95E2F718
:10041000982F9095809135008923809335008A81AB
:10042000992722960FB6F894DEBF0FBECDBFDF919D
:10043000CF910895CF93DF93CDB7DEB780E00E94D0
:10044000960188230CF4FACF85E090E00E942F02F9
:1004500080E00E9496019927DF91CF910895CF9374
:10046000DF93CDB7DEB722970FB6F894DEBF0FBE8D
:10047000CDBF9A83898389819A81009711F400C046
:1004800006C089819A810197F1F79A838983229620
:100490000FB6F894DEBF0FBECDBFDF91CF910895A8
:1004A000CF93DF93CDB7DEB721970FB6F894DEBFB9
:1004B0000FBECDBF89830E941A0260E089810E942D
:1004C000400121960FB6F894DEBF0FBECDBFDF917D
:1004D000CF910895CF93DF93CDB7DEB722970FB6B4
:1004E000F894DEBF0FBECDBF89836A838A818230D4
:1004F00038F083E0809360008A8182508A8303C051
:1005000082E0809360008A819927002496958795E0
:100510000794969587950794982F802D2981982F79
:10052000920F80E8890F0E94500222960FB6F8942D
:10053000DEBF0FBECDBFDF91CF910895CF93DF9384
:10054000CDB7DEB722970FB6F894DEBF0FBECDBF92
:1005500089830E941A028A8389818A3021F48A81E0
:100560000E94C00204C061E089810E94400122967D
:100570000FB6F894DEBF0FBECDBFDF91CF910895C7
:10058000CF93DF93CDB7DEB722970FB6F894DEBFD7
:100590000FBECDBF898389818B3118F480E48A83B3
:1005A0000CC01A8280916000833021F482E0809335
:1005B000600003C083E08093600080E89A81890F27
:1005C0000E94500222960FB6F894DEBF0FBECDBF38
:1005D000DF91CF910895CF93DF93CDB7DEB7239707
:1005E0000FB6F894DEBF0FBECDBF9A838983E98131
:1005F000FA8180813196FA83E9838B83882321F005
:100600008B810E949E02F3CF23960FB6F894DEBF33
:100610000FBECDBFDF91CF910895CF93DF93CDB7BC
:10062000DEB726970FB6F894DEBF0FBECDBF9A8314
:10063000898389819A819C0101969A8389833C836D
:100640002B83EB81FC8184918D838D818E83882324
:1006500021F08E810E949E02ECCF26960FB6F89470
:10066000DEBF0FBECDBFDF91CF910895CF93DF9353
:10067000CDB7DEB782E08093600081E00E94500237
:1006800083E08093600081E00E945002DF91CF916F
:100690000895CF93DF93CDB7DEB721970FB6F894C7
:1006A000DEBF0FBECDBF89839FE0809135008923D7
:1006B0008063809335000E94160185EE95E30E94C9
:1006C0002F020E94160180EB90E00E942F020E94F0
:1006D000160180EB90E00E942F029FE08091350090
:1006E00089238062809335000E94160180EB90E0A0
:1006F0000E942F0288E20E94500288E00E9450026D
:1007000081E00E94500286E00E94500289810E948E
:10071000500221960FB6F894DEBF0FBECDBFDF9119
:10072000CF910895CF93DF93CDB7DEB721970FB662
:10073000F894DEBF0FBECDBF898380913400806FF7
:1007400080933400809134008160809334008091E4
:1007500034008260809334008091340088608093FC
:1007600034008091340084608093340080EC9CEAF3
:100770000E942F0283E08093600089810E944903D8
:1007800082E08093600089810E94490321960FB620
:10079000F894DEBF0FBECDBFDF91CF910895FB016E
:1007A0009F01E8944230C4F04532B4F44A3029F451
:1007B00097FB1EF4909581959F4F642F77270E9499
:1007C0000004805D8A330CF0895D8193CB01009732
:1007D000A1F716F45DE251931082C9010C94F00365
:1007E000DC01FC0101900020E9F73297AE17BF074A
:1007F00030F47C916081708331976D93F7CF0895C9
:10080000AA1BBB1B51E107C0AA1FBB1FA617B70736
:1008100010F0A61BB70B881F991F5A95A9F7809552
:080820009095BC01CD01089583
:00000001FF
