:100000000C942A000C9445000C9445000C94450077
:100010000C9445000C9445000C9445000C9445004C
:100020000C9445000C9445000C9445000C943E0241
:100030000C9445000C9445000C9445000C9445002C
:100040000C9445000C9445000C9445000C9445001C
:100050000C94450011241FBECFE5D4E0DEBFCDBF18
:1000600010E0A0E6B0E0EAE5F5E002C005900D92F0
:10007000A43CB107D9F713E0A4ECB0E001C01D9295
:10008000AF34B107E1F70C948E000C940000CF93CD
:10009000DF93CDB7DEB722970FB6F894DEBF0FBE61
:1000A000CDBF80EA0E94A90089838981882339F025
:1000B0000E94560180E690E00E94F10126C085E88A
:1000C00090E00E94F10180E00E94680185E00E94BA
:1000D00068018CEA0E9468010E94560180EA0E9431
:1000E000F40080E00E94680185E00E94680181EAD6
:1000F0000E943E010E94AA0189830E9456018BE85A
:100100008A83CE0102960E94190222960FB6F894B5
:10011000DEBF0FBECDBFDF91CF910895CFE5D4E014
:10012000DEBFCDBF0E94BC010E949D000E9447001F
:10013000789480E090E00C94AC02CF93DF93CDB73D
:10014000DEB7109221008FE280932000DF91CF91E3
:100150000895CF93DF93CDB7DEB724970FB6F89409
:10016000DEBF0FBECDBF898384EA809356008091A5
:10017000560088230CF0FBCF98EF80912100892353
:100180008A838A81883041F08A81803129F081E038
:1001900090E09C838B831DC089818093230084E839
:1001A000809356008091560088230CF0FBCF98EF87
:1001B0008091210089238A838A81883141F08A8154
:1001C000803429F081E090E09C838B8302C01C8204
:1001D0001B828B819C8124960FB6F894DEBF0FBEE4
:1001E000CDBFDF91CF910895CF93DF93CDB7DEB729
:1001F00022970FB6F894DEBF0FBECDBF898384EA85
:10020000809356008091560088230CF0FBCF98EF26
:100210008091210089238A838A81883021F08A8114
:10022000803109F0ECCF89818093230084E88093AA
:1002300056008091560088230CF0FBCF98EF8091F8
:10024000210089238A838A81803221F08A8188353E
:1002500009F00BC084E980935600809156009927DD
:1002600080719070009759F2F8CF22960FB6F894EB
:10027000DEBF0FBECDBFDF91CF910895CF93DF9347
:10028000CDB7DEB721970FB6F894DEBF0FBECDBF56
:10029000898389810E94A900992721960FB6F89435
:1002A000DEBF0FBECDBFDF91CF910895CF93DF9317
:1002B000CDB7DEB784E98093560080915600992728
:1002C00080719070009709F0F8CFDF91CF91089579
:1002D000CF93DF93CDB7DEB724970FB6F894DEBF88
:1002E0000FBECDBF898389818093230084E88093EA
:1002F00056008091560088230CF0FBCF98EF809138
:10030000210089238A838A81883229F081E090E064
:100310009C838B8302C01C821B828B819C812496D0
:100320000FB6F894DEBF0FBECDBFDF91CF91089519
:10033000CF93DF93CDB7DEB784EC809356008091E6
:10034000560088230CF0FBCF809123009927DF9182
:10035000CF910895CF93DF93CDB7DEB784E8809334
:1003600056008091560088230CF0FBCF809123002B
:100370009927DF91CF910895CF93DF93CDB7DEB763
:100380001092400085E08093290088E980932A003C
:1003900086E88093400082EA90E00E94F101DF91BC
:1003A000CF910895CF93DF93CDB7DEB721970FB6E6
:1003B000F894DEBF0FBECDBF898380912B009927B3
:1003C00080729070009709F4F8CF898180932C0097
:1003D00021960FB6F894DEBF0FBECDBFDF91CF914F
:1003E0000895CF93DF93CDB7DEB722970FB6F89479
:1003F000DEBF0FBECDBF9A838983E981FA818081F8
:10040000882359F0E981FA8180810E94D201898193
:100410009A8101969A838983F0CF8DE00E94D20160
:1004200022960FB6F894DEBF0FBECDBFDF91CF91FD
:100430000895CF93DF93CDB7DEB727970FB6F89423
:10044000DEBF0FBECDBF9A8389839E012D5F3F4FD4
:10045000E981FA81808199274AE050E0B9010E9440
:100460006702CE0103960E94F10127960FB6F89419
:10047000DEBF0FBECDBFDF91CF9108951F920F92C7
:100480000FB60F9211248F939F93CF93DF93CDB725
:10049000DEB72197DEBFCDBF80912C00898380918C
:1004A0002B00992780729070009709F4F8CF89810A
:1004B00080932C002196F894DEBFCDBFDF91CF91C1
:1004C0009F918F910F900FBE0F901F901895FB0179
:1004D0009F01E8944230C4F04532B4F44A3029F424
:1004E00097FB1EF4909581959F4F642F77270E946C
:1004F0009802805D8A330CF0895D8193CB0100976F
:10050000A1F716F45DE251931082C9010C948802A0
:10051000DC01FC0101900020E9F73297AE17BF071C
:1005200030F47C916081708331976D93F7CF08959B
:10053000AA1BBB1B51E107C0AA1FBB1FA617B70709
:1005400010F0A61BB70B881F991F5A95A9F7809525
:0A0550009095BC01CD010895FFCF86
:10055A004665686C6572212120454550524F4D20F1
:10056A007775726465206E6963687420676566755D
:10057A006E64656E00454550524F4D20726963683E
:10058A0074696720696E697469616C6973696572F7
:10059A0074000D55617274207775726465207269F2
:1005AA00636874696720696E697469616C697369E3
:0405BA0065727400F2
:00000001FF
