:100000000C9434000C9451000C9451000C94F500A5
:100010000C9451000C9451000C9451000C9451001C
:100020000C9451000C94D8030C9451000C94510082
:100030000C9451000C9451000C9451000C945100FC
:100040000C9451000C9451000C9433020C94510008
:100050000C9451000C9451000C9451000C945100DC
:100060000C9451000C94510011241FBECFEFD4E02A
:10007000DEBFCDBF11E0A0E0B1E0E0E0F9E002C0FA
:1000800005900D92A039B107D9F711E0A0E9B1E0D0
:1000900001C01D92AC3AB107E1F70E9453000C94E5
:1000A0007E040C940000DF93CF9300D000D00F9219
:1000B000CDB7DEB7E0EBF0E01082E1EBF0E081E0FD
:1000C0008083A0E7B0E0E0E7F0E0808181608C937E
:1000D00083E38983E5ECF0E08981882F90E0892F24
:1000E000990F990B8083E4ECF0E089818083E1EC47
:1000F000F0E088E18083E2ECF0E086E08083ABE62C
:10010000B0E0EBE6F0E0808183608C93E8E6F0E01D
:1001100081E08083109291011092920110929301DC
:1001200010929401AAE2B0E0EAE2F0E080818068F7
:100130008C93ABE2B0E0EBE2F0E0808180688C93DE
:1001400080E091E00E94B10183E191E00E94B10161
:1001500084E591E00E94B101E0ECF0E08081882F1D
:1001600090E0807290700097B9F3E6ECF0E084E6DE
:10017000808383E40E949A0178940E947903DC01D1
:10018000CB018A839B83AC83BD830E947903DC010E
:10019000CB012A813B814C815D812C593F4F4F4FD0
:1001A0005F4F281739074A075B0778F70E947903E2
:1001B000DC01CB018A839B83AC83BD83ABE2B0E0DF
:1001C000EBE2F0E0908180E889278C9380919101A7
:1001D00090919201A0919301B09194010E94F60137
:1001E0008BE591E00E94B101D0CF1F920F920FB624
:1001F0000F9211242F933F934F935F938F939F936D
:10020000AF93BF93EF93FF93DF93CF9300D0CDB71E
:10021000DEB7198280919001880F880F809390013A
:10022000809190018C7080939001E3E2F0E08081F6
:10023000817081708170982F9170809190018E7F74
:10024000892B80939001E3E2F0E08081882F90E099
:10025000827090701A82009711F081E08A838A81FF
:100260008170982F990F809190018D7F892B8093B9
:10027000900180919001882F90E0FC01E25AFE4F9E
:100280008081898389818038D9F08981282F33271B
:1002900027FD3095432F532F80919101909192012A
:1002A000A0919301B0919401820F931FA41FB51FD9
:1002B0008093910190939201A0939301B093940144
:1002C0000F900F90CF91DF91FF91EF91BF91AF9180
:1002D0009F918F915F914F913F912F910F900FBE02
:1002E0000F901F901895DF93CF93CDB7DEB7E2EC58
:1002F000F0E08EE08083E5ECF0E01082E4ECF0E0EA
:100300008CE08083E1ECF0E088E18083E2ECF0E0D7
:1003100086E480838EE691E00E94B1018AE991E053
:1003200024EA31E04AE0BC01C9010E946F02CF918A
:10033000DF910895DF93CF930F92CDB7DEB7898316
:10034000E0ECF0E08081882F90E080729070009760
:10035000B9F3E6ECF0E0898180830F90CF91DF91D3
:100360000895DF93CF9300D0CDB7DEB79A8389830A
:100370000BC0E981FA81208189819A8101969A8353
:100380008983822F0E949A01E981FA8180818823E2
:1003900081F70F900F90CF91DF910895DF93CF9366
:1003A00000D000D000D0CDB7DEB79E838D8308C0CB
:1003B0008C810E949A018D819E8101969E838D83FE
:1003C0008D819E819B838A83EA81FB8184918983CD
:1003D00089818C838C81882359F726960FB6F894EF
:1003E000DEBF0FBECDBFCF91DF910895DF93CF93D6
:1003F000CDB7DEB72D970FB6F894DEBF0FBECDBFD9
:100400009D878C878C859D854AE050E09E012F5FFB
:100410003F4FB9010E941704CE0101960E94B1011D
:100420002D960FB6F894DEBF0FBECDBFCF91DF91F2
:100430000895DF93CF9300D0CDB7DEB784EA91E083
:100440009E012F5F3F4FB9010E940B03882319F4CF
:1004500089818A8302C08FEF8A838A810F900F90EF
:10046000CF91DF9108951F920F920FB60F92112432
:100470002F933F934F935F936F937F938F939F93AC
:10048000AF93BF93EF93FF93DF93CF930F92CDB7CB
:10049000DEB7E6ECF0E08081898384EA91E069814F
:1004A0000E94A402E0ECF0E08081882F90E080724E
:1004B00090700097B9F30F90CF91DF91FF91EF917A
:1004C000BF91AF919F918F917F916F915F914F916C
:1004D0003F912F910F900FBE0F901F901895DF93B3
:1004E000CF9300D000D00F92CDB7DEB79A83898327
:1004F0007C836B834D83E981FA811082E981FA81E3
:100500008B819C8195838483E981FA8184819581A3
:10051000E981FA8193838283E981FA818D818183E4
:10052000E981FA818181E981FA818783E981FA8110
:100530008781E981FA8186830F900F900F900F9049
:100540000F90CF91DF910895DF93CF93CDB7DEB7B2
:1005500028970FB6F894DEBF0FBECDBF9E838D8364
:100560006F83ED81FE819081ED81FE8181819817FD
:1005700010F0188646C0EFE5F0E080818C83F89497
:10058000ED81FE81848195819B838A83EA81FB8151
:100590008F8180838A819B8101969B838A83ED81F1
:1005A000FE8187818983898181508983898188231C
:1005B00089F4ED81FE81818189838981882F90E092
:1005C00022273327281B390B8A819B81820F931F97
:1005D0009B838A83ED81FE8189818783ED81FE8102
:1005E0008A819B8195838483ED81FE8180818F5FE9
:1005F000ED81FE818083EFE5F0E08C81808381E0F6
:100600008887888528960FB6F894DEBF0FBECDBFC9
:10061000CF91DF910895DF93CF93CDB7DEB72997C0
:100620000FB6F894DEBF0FBECDBF9E838D83788753
:100630006F83ED81FE818081882319F481E08987B1
:1006400047C0EFE5F0E080818C83F894ED81FE8176
:10065000828193819B838A83ED81FE818681898358
:10066000EA81FB818081EF81F88580838A819B818B
:1006700001969B838A83898181508983898188231C
:1006800089F4ED81FE81818189838981882F90E0C1
:1006900022273327281B390B8A819B81820F931FC6
:1006A0009B838A83ED81FE818A819B8193838283F0
:1006B000ED81FE8189818683ED81FE81808181507B
:1006C000ED81FE818083EFE5F0E08C8180831986E7
:1006D000898529960FB6F894DEBF0FBECDBFCF91A6
:1006E000DF910895DF93CF93CDB7DEB7CF91DF9140
:1006F0000895DF93CF93CDB7DEB7809196019091A7
:100700009701A0919801B09199012227382F492F84
:100710005A2F80919501882F90E0A0E0B0E0820FE1
:10072000931FA41FB51F24E230E040E050E0BC015D
:10073000CD010E944804DA01C901BC01CD01CF916D
:10074000DF910895DF93CF9300D0CDB7DEB78A83D2
:10075000809195019A81890F898390919501898172
:100760009817D9F70F900F90CF91DF910895DF93ED
:10077000CF9300D000D0CDB7DEB79C838B831A8295
:10078000198208C084E20E94A20389819A8101969D
:100790009A83898329813A818B819C812817390723
:1007A0008CF30F900F900F900F90CF91DF910895E1
:1007B0001F920F920FB60F9211248F939F93AF93B6
:1007C000BF93EF93FF93DF93CF93CDB7DEB7A2EB49
:1007D000B0E0E2EBF0E08081805E8C938091950147
:1007E0008F5F8093950180919501882399F4809182
:1007F000960190919701A0919801B091990101966D
:10080000A11DB11D8093960190939701A09398012B
:10081000B0939901CF91DF91FF91EF91BF91AF918B
:100820009F918F910F900FBE0F901F901895FB0115
:100830009F01E8944230C4F04532B4F44A3029F4C0
:1008400097FB1EF4909581959F4F642F77270E9408
:100850006A04805D8A330CF0895D8193CB01009737
:10086000A1F716F45DE251931082C9010C9438048B
:10087000DC01FC01672F71917723E1F7329704C007
:100880007C916D9370836291AE17BF07C8F3089592
:10089000A1E21A2EAA1BBB1BFD010DC0AA1FBB1F84
:1008A000EE1FFF1FA217B307E407F50720F0A21BF6
:1008B000B30BE40BF50B661F771F881F991F1A9463
:1008C00069F760957095809590959B01AC01BD018D
:1008D000CF010895AA1BBB1B51E107C0AA1FBB1F74
:1008E000A617B70710F0A61BB70B881F991F5A95BC
:1008F000A9F780959095BC01CD010895F894FFCF9C
:100900000C202A2A2A2048616C6C6F21202A2A2A6E
:100910000D0A00204963682062696E2065696E20B7
:100920006B6C65696E657220526F626F7465722EB2
:1009300020576173206D6F656368746573742064FC
:1009400075206D6974206D6972206D616368656ED4
:100950003F0D0A00424F543A5C3E000D0A0000FF72
:100960000180010080FFFF8000018001FF005561D0
:100970007274207775726465207269636874696740
:1009800020696E697469616C6973696572740A00C3
:00000001FF
