:100000000C942A000C9447000C9447000C94470071
:100010000C9447000C9447000C9447000C94470044
:100020000C9447000C9447000C9447000C94470034
:100030000C9447000C9447000C9447000C94470024
:100040000C9447000C948D000C9447000C944700CE
:100050000C94470011241FBECFE5D4E0DEBFCDBF16
:1000600010E0A0E6B0E0E6EAF4E002C005900D92F0
:10007000A036B107D9F710E0A0E6B0E001C01D92AC
:10008000A236B107E1F70E9449000C9452020C9489
:100090000000CF93DF93CDB7DEB780E50E9452001A
:1000A0007894FFCFCF93DF93CDB7DEB721970FB60C
:1000B000F894DEBF0FBECDBF8983E2E2F0E0898114
:1000C0008083A6E5B0E0E6E5F0E080818F7D8C934B
:1000D000A6E5B0E0E6E5F0E0808185648C931092BF
:1000E000610080916000816080936000E7E3F0E050
:1000F0008FEF8083E8E3F0E01082EAE3F0E08FEF37
:100100008083EBE3F0E0108221960FB6F894DEBF17
:100110000FBECDBFDF91CF9108951F920F920FB602
:100120000F9211242F933F938F939F93EF93FF93FD
:10013000CF93DF93CDB7DEB72397DEBFCDBF198254
:10014000E1E2F0E0808199279C01287F30703B83B9
:100150002A838A819B818038910501F12A813B8124
:100160002138310534F48A819B818036910569F00C
:100170004BC02A813B81283A310509F440C08A816D
:100180009B81883B9105D9F13FC0E6E5F0E085EC25
:100190008083EBE3F0E08CEF80833FC0E3E2F0E0AC
:1001A00080818983809160008170882371F08981CA
:1001B00080936100EBE3F0E08091610080838091A7
:1001C00060008E7F8093600015C080916100992748
:1001D00001978730910528F4E8E3F0E08981808376
:1001E00004C0E8E3F0E08FEF8083809161008F5FCF
:1001F00080936100E6E5F0E085EC80830EC0E6E5E3
:10020000F0E085EC808309C080916000816080937C
:100210006000E6E5F0E085EC80832396F894DEBF8D
:10022000CDBFDF91CF91FF91EF919F918F913F9142
:100230002F910F900FBE0F901F901895CF93DF93C3
:10024000CDB7DEB7E9EBF0E01082E8EBF0E080E25A
:100250008083DF91CF910895CF93DF93CDB7DEB741
:1002600024970FB6F894DEBF0FBECDBF8A83ECEBA8
:10027000F0E084EA8083ECEBF0E080818823DCF717
:10028000E9EBF0E0908188EF8923898389818830C8
:1002900041F08981803129F081E090E09C838B835B
:1002A00020C0EBEBF0E08A818083ECEBF0E084E8A7
:1002B0008083ECEBF0E080818823DCF7E9EBF0E071
:1002C000908188EF892389838981883141F08981F0
:1002D000803429F081E090E09C838B8302C01C82F3
:1002E0001B828B819C8124960FB6F894DEBF0FBED3
:1002F000CDBFDF91CF910895CF93DF93CDB7DEB718
:1003000022970FB6F894DEBF0FBECDBF8A8300C020
:10031000ECEBF0E084EA8083ECEBF0E08081882372
:10032000DCF7E9EBF0E0908188EF8923898389810C
:10033000883019F08981803159F7EBEBF0E08A8140
:100340008083ECEBF0E084E88083ECEBF0E08081EC
:100350008823DCF7E9EBF0E0908188EF892389833B
:100360008981803219F08981883569F4ECEBF0E0FD
:1003700084E98083ECEBF0E08081992780719070B4
:100380000097C1F7C5CF22960FB6F894DEBF0FBE17
:10039000CDBFDF91CF910895CF93DF93CDB7DEB777
:1003A00021970FB6F894DEBF0FBECDBF8983898138
:1003B0000E942C01992721960FB6F894DEBF0FBE3C
:1003C000CDBFDF91CF910895CF93DF93CDB7DEB747
:1003D000ECEBF0E084E98083ECEBF0E0808199279E
:1003E000807190700097C1F7DF91CF910895CF93FE
:1003F000DF93CDB7DEB724970FB6F894DEBF0FBEFC
:10040000CDBF8A83EBEBF0E08A818083ECEBF0E0F8
:1004100084E88083ECEBF0E080818823DCF7E9EB73
:10042000F0E0908188EF892389838981883229F0DF
:1004300081E090E09C838B8302C01C821B828B81B5
:100440009C8124960FB6F894DEBF0FBECDBFDF911E
:10045000CF910895CF93DF93CDB7DEB7ECEBF0E00B
:1004600084EC8083ECEBF0E080818823DCF7EBEB1D
:10047000F0E080819927DF91CF910895CF93DF93AA
:10048000CDB7DEB7ECEBF0E084E88083ECEBF0E096
:1004900080818823DCF7EBEBF0E080819927DF9106
:0604A000CF910895FFCF8B
:00000001FF
