:100000000C9438000C9455000C9455000C94550039
:100010000C9455000C9455000C9455000C9455000C
:100020000C9455000C9455000C9455000C94CB0482
:100030000C9455000C9455000C9455000C945500EC
:100040000C9455000C9455000C9455000C945500DC
:100050000C9455000C9455000C9455000C945500CC
:100060000C9455000C9455000C9455000C945500BC
:1000700011241FBECFEFD0E1DEBFCDBF12E0A0E064
:10008000B1E0E0E6FBE002C005900D92A631B107B9
:10009000D9F712E0A6E1B2E001C01D92A532B10786
:1000A000E1F70E9427010C94AF050C940000EF9239
:1000B000FF920F931F93CF93DF938C0162E080E058
:1000C0000E94D40381E00E94CA0360E080E00E94A5
:1000D000D40381E00E94CA03C0E0D0E085EA0E9418
:1000E000E9032196CB31D105C9F7F801948D969596
:1000F00060E08DE0891B0E94D403C8010E941E04A9
:10010000C1E0D0E03CE9E32EF12CE00EF11EF70156
:1001100080819E01280F311D05561F4FF8018081F7
:100120000B591040992782179307F4F06C2F85E044
:100130000E94D4038CE70E94E903F70180819E01AD
:10014000280F311DC90124E0880F991F2A95E1F776
:10015000800F911F0D960E941E048CE70E94E903F8
:100160002196C430D10571F6DF91CF911F910F9187
:10017000FF90EF900895FF920F931F93CF93DF931B
:10018000EC0130911602832F992787FD90958E01FF
:1001900004561F4FF8012081821B910904972CF00F
:1001A00033503083CE010E94570030911602832FC6
:1001B000992787FD9095F8012081821B91091816D7
:1001C00019062CF031503083CE010E94570001E017
:1001D00010E0F02E602F84E00E94D403809116027C
:1001E000992787FD9095C456DF4F2881CC59D04080
:1001F000A801420F511D8417950711F48EE701C025
:1002000080E20E94E9036F2D86E10E94D403809171
:100210001602992787FD9095C456DF4F2881CC5947
:10022000D040F801E20FF11D8E179F0711F48FE700
:1002300001C080E20E94E9030F5F1F4F04301105E7
:1002400041F6DF91CF911F910F91FF900895EF92AA
:10025000FF920F931F93CF93DF93CDB7DEB7C75DA8
:10026000D1400FB6F894DEBF0FBECDBF81B1887FFD
:1002700081B982B1876082B98FEF87B988B9239A33
:100280002B9880E090E00000019625E781339207EB
:10029000D1F785B198E0892785B90E949C048CE04C
:1002A0000E94810478948CE00E94810460E080E0E8
:1002B0000E94D4038CE70E94E9038EE70E94E903C1
:1002C00061E080E00E94D4038CE70E94E9038EE79E
:1002D0000E94E90362E080E00E94D4038CE70E9460
:1002E000E9038EE70E94E90363E080E00E94D40303
:1002F0008CE70E94E9038EE70E94E90361E089E14F
:100300000E94D40380E091E00E941E0462E089E133
:100310000E94D40380E091E00E941E0463E089E122
:100320000E94D40380E091E00E941E0460E080E01F
:100330000E94D40360E080E00E94D40385EA0E941A
:10034000E90385EA0E94E90385EA0E94E90385EA58
:100350000E94E90385EA0E94E90385EA0E94E90315
:1003600085EA0E94E90385EA0E94E90383E091E0BF
:100370000E941E0485EA0E94E90385EA0E94E903BF
:1003800085EA0E94E90385EA0E94E90385EA0E9462
:10039000E90385EA0E94E90385EA0E94E90385EA08
:1003A0000E94E90361E08BE00E94D4038FE091E0BA
:1003B0000E941E0463E085E00E94D4038FEF0E9438
:1003C000E9038CE70E94E9038EE70E94E9038FE7C7
:1003D0000E94E9038CE70E94E9038FEF0E94E90382
:1003E00081E00E946C05882311F40000F9CF5BE3E3
:1003F000E52E51E0F52EEC0EFD1E65E171E0C70122
:100400000E9486058FE0F701848F65E271E0C701E5
:100410004D960E94860565E371E0C7018D960E94A6
:10042000860565E471E0C701CD960E94860565E505
:1004300071E0CE0188579E4F0E94860565E671E007
:10044000CE0188569E4F0E94860565E771E0CE0179
:1004500088559E4F0E948605CE010196FE01E85305
:10046000FE4F918380838E0102561F4FFE01E6539B
:10047000FE4F11830083FE01E453FE4F1182108270
:10048000FE01E253FE4F11821082FE01E053FE4F47
:1004900011821082FE01EE52FE4F1182108226E080
:1004A000FE01EA52FE4F2083FE01E952FE4F108208
:1004B00065E871E00E94860584E08D8F6AE871E04E
:1004C000CE014E960E9486056AE971E0CE018E96B5
:1004D0000E948605FE01E257FF4F11821082FE0145
:1004E000E057FF4FF182E08282E0FE01E456FF4FC9
:1004F0008083FE01E356FF4F10826AEA71E0C80173
:100500000E9486058AE0F801848F65EB71E0C801DE
:100510004D960E94860565EC71E0C8018D960E949B
:10052000860565ED71E0C801CD960E94860565EEF1
:1005300071E0CE0185519F4F0E94860565EF71E005
:10054000CE0185509F4F0E94860565E072E0CE0186
:10055000855F9E4F0E9486056AE971E0CE01855E47
:100560009E4F0E948605FE01E55DFE4F11821082BE
:10057000FE01E35DFE4F11821082FE01E15DFE4F40
:1005800011821082FE01EF5CFE4F11821082FE018B
:10059000ED5CFE4F11821082FE01EB5CFE4F11827A
:1005A0001082FE01E95CFE4FF182E08287E0FE01ED
:1005B000E75CFE4F8083FE01E65CFE4F1082F09206
:1005C0002002E0921F02C7010E94570081E00E94B2
:1005D0006C05882339F12091160280911F029091B9
:1005E0002002E22FFF27E7FDF095EE0FFF1FE80F37
:1005F000F91FE557FF4F0190F081E02D309789F00A
:10060000222379F0F0932002E0931F021092160249
:10061000E456FF4F108280911F02909120020E94A9
:1006200057002A9A82E00E946C05882329F482E010
:100630000E9479058823D9F0209116022F5F20931C
:100640001602E0911F02F0912002332727FD30951A
:10065000E556FF4F8081EB59F040992782179307A9
:100660001CF481E080931602CF010E94BB0084E05D
:100670000E946C05882331F484E00E947905882368
:1006800009F4A4CF809116028150809316021816A7
:100690004CF0E0911F02F0912002E556FF4F80815F
:1006A0008093160280911F02909120020E94BB004D
:1006B0008DCF21E030E00090210202C0220F331FD5
:1006C0000A94E2F788B1822B88B900C0922F9095E6
:1006D00088B1892388B90895CF93C82F662311F074
:1006E000409A01C04098419887B1806F87B988B11E
:1006F0008F709C2F907F892B88B90E94590328B155
:100700002F708C2F99278F70907034E0880F991F6D
:100710003A95E1F7282B28B90E94590388B1806FD8
:1007200088B9CF910895882311F0409A01C040986C
:10073000419A87B18F7087B921E030E000902102A3
:1007400002C0220F331F0A94E2F788B1822B88B9C6
:1007500000C096B1907F422F409588B1842388B91C
:1007600000C088B1822B88B900C086B182958F7095
:10077000982B88B1842388B9892F9927089580E020
:100780000E9493038823DCF300C080E00E9493035F
:10079000992708951F93182F0E94BF0360E0812FAF
:1007A0000E946C031F910895982F623028F083E017
:1007B00080932102625003C082E0809321026295FF
:1007C000660F660F607C690F862F80580E94CA03EF
:1007D0000895CF93C82F0E94BF03CA3099F48B317C
:1007E00010F490E40AC090E080912102833011F46B
:1007F00082E001C083E080932102892F80580E940B
:10080000CA031AC08B3119F460E080EC0DC08B353F
:1008100069F480912102833011F482E001C083E009
:100820008093210260E080E80E946C030E94BF0375
:1008300061E08C2F0E946C03CF910895CF93DF93DA
:10084000EC018991882329F00E94E903899188238A
:10085000D9F7DF91CF910895CF93DF93EC01FC019D
:1008600021968491882339F00E94E903FE012196A4
:1008700084918823C9F7DF91CF91089582E0809316
:10088000210281E00E94CA0383E08093210281E07B
:100890000E94CA0308950F931F93082F1FE088B189
:1008A0008123806388B90E94590380EE94E0019708
:1008B000F1F70E94590380E190E00197F1F70E945F
:1008C000590380E190E00197F1F788B181238062BC
:1008D00088B90E94590380E190E00197F1F788E21E
:1008E0000E94CA0388E00E94CA0381E00E94CA03F2
:1008F00086E00E94CA03802F0E94CA031F910F91B5
:1009000008951F93182F87B1806F87B9389A399A45
:100910003B9A3A9A80EA9FE00197F1F783E080934F
:100920002102812F0E944B0482E080932102812FBB
:100930000E944B041F91089583EC8093B00082E0E5
:100940008093B100E0E7F0E08081816080830895CA
:1009500060911B0270911C0280911D0290911E02F9
:1009600020911A02982F872F762F6627620F711D0C
:10097000811D911D24E230E040E050E00E948D0591
:10098000CA01B901089590911A02980F80911A0234
:100990008917E1F708951F920F920FB60F92112455
:1009A0002F933F934F935F936F937F938F939F9377
:1009B000AF93BF93EF93FF938091B20089528093DE
:1009C000B20080911A028F5F80931A0280911A02FE
:1009D000882399F480911B0290911C02A0911D0222
:1009E000B0911E020196A11DB11D80931B02909330
:1009F0001C02A0931D02B0931E0280911A0287333D
:100A000061F080911A028E3741F080911A028D3B7D
:100A100021F080911A028F3F11F40E943105FF915D
:100A2000EF91BF91AF919F918F917F916F915F9166
:100A30004F913F912F910F900FBE0F901F901895DF
:100A4000BC0140E050E009C020911A022C5D809169
:100A50001A028217E1F74F5F5F4F46175707A4F35B
:100A600008952091240280B1809528279091190241
:100A700092239095909319028091180289278223DE
:100A800080931802922398238091240289278093CF
:100A9000240220912302809124028923282B209371
:100AA000230280912402867021F48CE78093170240
:100AB000089580911702815080931702882359F47A
:100AC00089E180931702909122028091240286701E
:100AD000982B9093220208952FB7F89490912302B7
:100AE0008923909123029827909323022FBF99275F
:100AF00008952FB7F89490912202892390912202B1
:100B00009827909322022FBF99270895FB01DC01BB
:100B100001900D920020E1F70895A1E21A2EAA1B80
:100B2000BB1BFD010DC0AA1FBB1FEE1FFF1FA2179D
:100B3000B307E407F50720F0A21BB30BE40BF50B9A
:100B4000661F771F881F991F1A9469F76095709523
:100B5000809590959B01AC01BD01CF010895FFCF19
:100B60003C3D0048656C6C6F20576F726C64005799
:100B70006F726C64006E426F742048617570746DA2
:100B8000656E7565002020202020496E666F20204C
:100B90002020202000202054656D706572617475DE
:100BA0007220202000202020205568727A65697408
:100BB00020202020002045696E7374656C6C756E72
:100BC00067656E2000202020446961676E6F736541
:100BD00020202020002E2E3A3A20456E6465203ACF
:100BE0003A2E2E2000496E666F002056657273699A
:100BF0006F6E202020302E3031002D2D2D2D5A7576
:100C0000727565636B2D2D2D2D0054656D706572A9
:100C1000617475720048616C6C6F2064752064614A
:100C20002E496368006B616E6E2068696572206C86
:100C300065692D2000646572206E75722031352043
:100C40005A65692D006368656E2073636872656913
:100C500062656E2000756E64206461732069737430
:100C6000207A692D0065686D6C69636820646F6F18
:060C7000662E20200000AA
:00000001FF
