:100000000C942A000C9447000C9447000C94470071
:100010000C9447000C9447000C9447000C94470044
:100020000C9447000C9447000C9447000C94470034
:100030000C9447000C9447000C9447000C94470024
:100040000C9447000C9447000C9447000C94470014
:100050000C94470011241FBECFE5D4E0DEBFCDBF16
:1000600010E0A0E6B0E0E8EFF1E002C005900D92EC
:10007000A036B107D9F710E0A0E6B0E001C01D92AC
:10008000A236B107E1F70E9449000C94FB000C94E2
:1000900000001F931FEF17BB18BA1ABB1BBA0E94B0
:1000A0007E0080E90E948700282F3327309361006B
:1000B00020936000882321F00E94D50018BB1AC04D
:1000C00080E00E94DB0081E90E94D1000E94EB00E9
:1000D000992790936100809360008BBB0E94F3008E
:1000E000992790936100809360000E94D5008091D1
:1000F000600088BB80E090E01F9108958FEF8ABB7D
:100100001BBA11B888E080B981E08BBB0895982FA5
:1001100082E08BBB84EA86BF84E08BBB06B607FE19
:10012000FDCF84E08BBB81B1887F883011F08031B6
:10013000B9F480E18BBB93B984E886BF80E28BBBC6
:1001400006B607FEFDCF80E48BBB81B1887F883186
:1001500011F0803429F480E88BBB80E090E00895B2
:1001600081E090E0089544EA34E824E946BF06B609
:1001700007FEFDCF91B1987F983011F09031B1F723
:1001800083B936BF06B607FEFDCF91B1987F903296
:1001900011F0983529F426BF06B604FEE7CFFCCF50
:1001A00008950E9487009927089584E986BF06B6BE
:1001B00004FCFDCF089583B984E886BF06B607FE28
:1001C000FDCF81B120E030E0887F883211F021E05E
:1001D00030E0C901089584EC86BF06B607FEFDCF66
:1001E00083B19927089584E886BF06B607FEFDCF40
:0801F00083B199270895FFCFA8
:00000001FF
