:100000000C9438000C9455000C9455000C94550039
:100010000C9455000C9455000C9455000C9455000C
:100020000C9455000C9455000C9455000C94F6015A
:100030000C9455000C9455000C9455000C945500EC
:100040000C9455000C9455000C9455000C945500DC
:100050000C9455000C9455000C9455000C945500CC
:100060000C9455000C9455000C9455000C945500BC
:1000700011241FBECFEFD0E1DEBFCDBF11E0A0E065
:10008000B1E0E8EAF5E002C005900D92A030B107BA
:10009000D9F711E0A0E0B1E001C01D92AC30B1078A
:1000A000E1F70E947F000C94D3020C94000097E8C3
:1000B00090937A0080937C0080917C00806680938E
:1000C0007C0080917A00806480937A0080917A002D
:1000D00086FF06C0FBCF80917A0086FF07C0FBCF6A
:1000E00080917A00806480937A00F5CF80917900C6
:1000F00090917A009F7790937A00992708958FEFD7
:1001000087B918B884B18C6084B985B18C6085B921
:1001100081B1867F81B981E082B9789483E00E94C1
:10012000570088B9FBCF88B121E030E0009003018F
:1001300002C0220F331F0A94E2F7822B88B900C055
:1001400088B12095822388B908951F93182F6623BC
:1001500011F0409A01C04098419887B1806F87B9EB
:1001600088B18F70912F907F892B88B90E9493005E
:1001700088B18F701295107F812B88B90E949300EF
:1001800088B18F70806F88B91F910895882311F00E
:10019000409A01C04098419A87B18F7087B988B161
:1001A00021E030E00090030102C0220F331F0A94C7
:1001B000E2F7822B88B900C086B198B1422F4095F2
:1001C000942398B900C098B1922B98B900C026B179
:1001D00098B1942398B9807F22952F70822B99270C
:1001E000089580E00E94C60087FDFBCF00C080E03C
:1001F0000E94C600992708951F93182F0E94F100AE
:1002000060E0812F0E94A5001F910895982F623011
:1002100028F083E080930301625003C082E0809362
:1002200003016295660F660F607C9058862F890FD8
:100230000E94FC0008951F93182F0E94F1001A30AD
:1002400091F48B3110F480E40AC080910301833073
:1002500011F482E001C083E08093030180E08058C4
:100260000E94FC001AC08B3119F460E080EC0DC0D4
:100270008B3569F480910301833011F482E001C071
:1002800083E08093030160E080E80E94A5000E9463
:10029000F10061E0812F0E94A5001F910895CF9386
:1002A000DF93EC0102C00E941B0189918823D9F7DA
:1002B000DF91CF910895CF93DF93EC0102C00E94AC
:1002C0001B01FE01219684918823C9F7DF91CF910C
:1002D000089582E08093030181E00E94FC0083E0A6
:1002E0008093030181E00E94FC000895FF920F9328
:1002F0001F93F82E88B18F70806388B90E94930095
:1003000080EE94E00197F1F70E94930000E110E085
:10031000C8010197F1F70E949300C8010197F1F716
:1003200088B18F70806288B90E949300C8010197DC
:10033000F1F788E20E94FC0088E00E94FC0081E066
:100340000E94FC0086E00E94FC008F2D0E94FC00B1
:100350001F910F91FF9008951F93182F87B1806F01
:1003600087B9389A399A3B9A3A9A80EA9FE001977E
:10037000F1F783E080930301812F0E94760182E0F0
:1003800080930301812F0E9476011F91089583ECD1
:100390008093B00082E08093B100E0E7F0E08081DC
:1003A00081608083089560910501709106018091BC
:1003B00007019091080120910401982F872F762F33
:1003C0006627620F711D811D911D24E230E040E01F
:1003D00050E00E94B102CA01B90108959091040150
:1003E000980F809104018917E1F708951F920F92E9
:1003F0000FB60F9211242F933F934F935F936F93F8
:100400007F938F939F93AF93BF93EF93FF938091CD
:10041000B20089528093B200809104018F5F809373
:10042000040180910401882399F480910501909141
:100430000601A0910701B09108010196A11DB11D0F
:100440008093050190930601A0930701B0930801E2
:1004500080910401873361F0809104018E3741F06F
:10046000809104018D3B21F0809104018F3F11F4B4
:100470000E945C02FF91EF91BF91AF919F918F918C
:100480007F916F915F914F913F912F910F900FBE90
:100490000F901F901895BC0140E050E009C02091DA
:1004A00004012C5D809104018217E1F74F5F5F4FDB
:1004B00046175707A4F3089520910B0180B180954A
:1004C00028279091020192239095909302018091A8
:1004D000010189278223809301019223982380912F
:1004E0000B01892780930B0120910A0180910B0158
:1004F0008923282B20930A0180910B01867021F417
:100500008CE78093000108958091000181508093D1
:100510000001882359F489E1809300019091090139
:1005200080910B018670982B9093090108952FB745
:10053000F89490910A01892390910A019827909349
:100540000A012FBF992708952FB7F89490910901B8
:100550008923909109019827909309012FBF99272A
:100560000895A1E21A2EAA1BBB1BFD010DC0AA1FF4
:10057000BB1FEE1FFF1FA217B307E407F50720F00C
:10058000A21BB30BE40BF50B661F771F881F991F87
:100590001A9469F760957095809590959B01AC01D0
:0805A000BD01CF010895FFCF5A
:00000001FF
