:100000000C942A000C9447000C9447000C94470071
:100010000C9447000C9447000C9447000C94470044
:100020000C9447000C9447000C9447000C94030870
:100030000C9447000C9447000C9447000C94470024
:100040000C9447000C9447000C9447000C94470014
:100050000C94470011241FBECFE5D4E0DEBFCDBF16
:1000600010E0A0E6B0E0E8EFF3E102C005900D92E9
:10007000AE3EB107D9F711E0AEEEB0E001C01D927F
:10008000A435B107E1F70E9449000C94FB090C94D8
:1000900000008F929F92AF92BF92CF92DF92EF9229
:1000A000FF920F931F93CF93DF93CDB7DEB7C45664
:1000B000D0400FB6F894DEBF0FBECDBF809189004F
:1000C00090918A009A83898382E6FE013396119289
:1000D0008A95E9F70E94FE0780E581BB969A949A7B
:1000E00080E690E09F938F930E9466080E945702DB
:1000F00080E296E00E940B0244E061E085E00E940D
:100100002D0280E895E20E94D00166E080E00E9426
:10011000B40136E7C32E30E0D32E0F900F902BE7BB
:10012000A22E20E0B22E90E8E92E90E0F92E83E88E
:10013000882E80E0982E8E010F5F1F4F6DE086E7BE
:1001400090E00E94F704BF92AF920E946608DF928F
:10015000CF920E946608FF92EF920E9466089F92DB
:100160008F920E9466088DB79EB708960FB6F894D6
:100170009EBF0FBE8DBFC8010E94DC028823D9F349
:100180001F930F930E946608FF92EF920E946608E9
:1001900080E090E0A0E0B0E00F900F900F900F9003
:1001A00000000196A11DB11D803422E492072FE0CA
:1001B000A20720E0B207A1F7C1CF9C017727762FD5
:1001C0006627CB018227932797FD41C0220F331F5B
:1001D000660F771FC9018627972797FD45C0220F15
:1001E000331F660F771FC9018627972797FD49C0E0
:1001F000220F331F660F771FC9018627972797FDA8
:100200004DC0220F331F660F771FC901862797271E
:1002100097FD51C0220F331F660F771FC901862734
:10022000972797FD55C0220F331F660F771FC9010F
:100230008627972797FD59C0220F331F660F771F18
:100240006227732777FD5DC0220F331F60C0220F26
:10025000331F81E290E128273927660F771FC901F4
:100260008627972797FFBBCF220F331F81E290E1AC
:1002700028273927660F771FC9018627972797FFF9
:10028000B7CF220F331F81E290E128273927660F6D
:10029000771FC9018627972797FFB3CF220F331FF8
:1002A00081E290E128273927660F771FC901862749
:1002B000972797FFAFCF220F331F81E290E12827C6
:1002C0003927660F771FC9018627972797FFABCF7E
:1002D000220F331F81E290E128273927660F771F0D
:1002E000C9018627972797FFA7CF220F331F81E2E7
:1002F00090E128273927660F771F6227732777FF3A
:10030000A3CF220F331F81E290E128273927C901AB
:1003100008959C01C498892F99278FB9779BFECFA8
:100320008FB12FB9779BFECF2FB19927982F8827B0
:10033000C49A820F911D0895C49800000000000027
:1003400080E090E0A0E0B0E00BC0813A26E89207A0
:1003500021E0A20720E0B20729F00196A11DB11DFE
:10036000B69BF3CFC49A089577276F70707062952B
:100370007295707F7627607F7627992787709070B7
:100380009869682B792BC498872F99278FB9779B09
:10039000FECF8FB16FB9779BFECF8FB1C49A08950E
:1003A00022E087399207E0F025E188319207C8F012
:1003B0009C01442755276CEF72E485E090E00E9491
:1003C000AA0921503040366CC498832F99278FB9E1
:1003D000779BFECF8FB12FB9779BFECF8FB1C49A99
:1003E00008959C014427552760E678EA80E090E074
:1003F0000E94CC09215030402068366CC498832F6D
:1004000099278FB9779BFECF8FB12FB9779BFECFFE
:100410008FB1C49A08958036910560F420E630EAE1
:1004200080EAC4988FB9779BFECF8FB12FB9779BA5
:10043000FECF10C02FE08034920728F49C01306A70
:10044000832F9927EECF8FE39FE09C01306A832FA3
:100450009927E7CF8FB1C49A0895282F33272770A3
:100460003070220F331F22953295307F3227207F44
:100470003227552747705070242B352B7727637010
:100480007070660F771F660F771F660F771F74698E
:10049000262B372BC498832F99278FB9779BFECFB4
:1004A0008FB12FB9779BFECF8FB1C49A089587B3D0
:1004B000806B87BBBE98C49A83E58DB98EB18EB927
:1004C0008FEF9BE6FC013197F1F7FC013197F1F7D3
:1004D000FC013197F1F7FC013197F1F7FC013197FD
:1004E000F1F7FC013197F1F7FC013197F1F7FC01CD
:1004F0003197F1F7FC013197F1F70197F1F7C498C3
:1005000080EC8FB9779BFECF8FB180EE8FB9779B50
:10051000FECF8FB1C49AC49880E88FB9779BFECF85
:100520008FB187ED8FB9779BFECF8FB1C49AC498F6
:1005300082EC8FB9779BFECF8FB18BEA8FB9779B17
:10054000FECF8FB1C49AC4988AEC8FB9779BFECF47
:100550008FB181E88FB9779BFECF8FB1C49AC498D1
:1005600080EE8FB9779BFECF8FB11FB8779BFECF00
:100570008FB1C49AC49888EC8FB9779BFECF8FB1A6
:100580001FB8779BFECF8FB1C49AC49884EC8FB903
:10059000779BFECF8FB187EF8FB9779BFECF8FB15F
:1005A000C49AC4981FB8779BFECF8FB11FB8779BB2
:1005B000FECF8FB1C49A0895EF92FF920F931F93CD
:1005C000CF93DF93EC01C49882E88FB9779BFECF7D
:1005D0008FB188EC8FB9779BFECF8FB1C49AC49846
:1005E0008AEC8FB9779BFECF8FB181E88FB9779B6B
:1005F000FECF8FB1C49AC4988AEC8FB9779BFECF97
:100600008FB183E88FB9779BFECF8FB1C49AC4981E
:1006100000000000000080E090E0A0E0B0E00BC02F
:10062000813A26E8920721E0A20720E0B20729F0EC
:100630000196A11DB11DB69BF3CFC49AC49880EB5F
:100640008FB9779BFECF8FB11FB8779BFECF8FB14D
:10065000C49A082F893C08F008ECE02EFF249E2D58
:10066000882797FD5CC120E030E0AC01440F551FA6
:10067000CA018227932797FD5CC1220F331F440FC5
:10068000551FCA018227932797FD5EC1220F331F92
:10069000440F551FCA018227932797FD62C1220F7D
:1006A000331F440F551FCA018227932797FD66C148
:1006B000220F331FBA01660F771FC90186279727BC
:1006C00097FD6AC1A901440F551F9B01220F331FDB
:1006D000C9018427952797FD6EC1440F551F220F2E
:1006E000331F2427352737FD72C1BA01660F771FE4
:1006F000002309F478C010E0C49800000000000056
:1007000080E090E0A0E0B0E00BC0813A36E89307CB
:1007100031E0A30730E0B30729F00196A11DB11D18
:10072000B69BF3CFC49AFE01E10FF11DC49880EB94
:100730008FB9779BFECF8FB11FB8779BFECF8FB15C
:10074000C49A80839927582F4427CB018427952763
:1007500097FDDDC09B01220F331F440F551FCA01B7
:100760008227932797FDCCC0220F331F440F551FBC
:10077000CA018227932797FDBCC0220F331F440F65
:10078000551FCA018227932797FDACC0220F331F44
:10079000440F551FCA018227932797FD9CC0220F43
:1007A000331FBA01660F771FCB018227932797FD6E
:1007B0008AC0A901440F551F9B01220F331FC90195
:1007C0008427952797FD78C0440F551F220F331FAC
:1007D0002427352737FD68C0BA01660F771F1F5FD2
:1007E000011709F089CFCE0DDF1D1982C4980000D2
:1007F0000000000080E090E0A0E0B0E00BC0813A93
:1008000026E8920721E0A20720E0B20729F001962E
:10081000A11DB11DB69BF3CFC49AC49880EB8FB9CC
:10082000779BFECF4FB11FB8779BFECF2FB1C49AF5
:10083000C49800000000000080E090E0A0E0B0E07C
:100840000BC0813A36E8930731E0A30730E0B307E5
:1008500029F00196A11DB11DB69BF3CFC49AC4988F
:1008600080EB8FB9779BFECF3FB11FB8779BFECF50
:100870009FB1C49AC49882E88FB9779BFECF8FB19D
:1008800088E08FB9779BFECF8FB1C49A3327892F29
:100890009927982F8827282B392B6217730709F47B
:1008A0009EC0EE24FF249BC0BA01660F771F81E231
:1008B00090E16827792793CF440F551F81E290E19B
:1008C0004827592783CFA901440F551F81E290E1A2
:1008D0004827592771CF220F331F81E290E1282743
:1008E00039275FCF220F331F81E290E12827392774
:1008F0004FCF220F331F81E290E1282739273FCFC6
:10090000220F331F81E290E1282739272FCF9B0147
:10091000220F331F81E290E1282739271ECF21E2E1
:1009200030E1AC01440F551FCA018227932797FF7E
:10093000A4CE220F331F21623061440F551FCA011C
:100940008227932797FFA2CE220F331F81E290E1E7
:1009500028273927440F551FCA018227932797FF5D
:100960009ECE220F331F81E290E128273927440FC2
:10097000551FCA018227932797FF9ACE220F331F54
:1009800081E290E128273927BA01660F771FC90154
:100990008627972797FF96CEA901440F551F81E21E
:1009A00090E1482759279B01220F331FC901842753
:1009B000952797FF92CE440F551F81E290E148277B
:1009C0005927220F331F2427352737FF8ECEBA0130
:1009D000660F771F81E290E16827792789CEC701EA
:1009E000DF91CF911F910F91FF90EF9008950F939A
:1009F0001F93CF93DF93EC01062FC49882E88FB941
:100A0000779BFECF8FB188E38FB9779BFECF8FB1F5
:100A1000C49AC49800000000000080E090E0A0E0CC
:100A2000B0E00BC0813A26E8920721E0A20720E05F
:100A3000B20729F00196A11DB11DB69BF3CFC49A50
:100A4000C49888EB8FB9779BFECF8FB18AEA8FB9B4
:100A5000779BFECF8FB1C49AC498000000000000BD
:100A600080E090E0A0E0B0E00BC0813A26E8920779
:100A700021E0A20720E0B20729F00196A11DB11DD7
:100A8000B69BF3CFC49AC49888EB8FB9779BFECFFF
:100A90008FB18AEA8FB9779BFECF8FB1C49AC49881
:100AA00000000000000080E090E0A0E0B0E00BC09B
:100AB000813A26E8920721E0A20720E0B20729F058
:100AC0000196A11DB11DB69BF3CFC49AC49888EBC3
:100AD0008FB9779BFECF8FB18AEA8FB9779BFECF14
:100AE0008FB1C49AC49800000000000080E090E03C
:100AF000A0E0B0E00BC0813A26E8920721E0A2070F
:100B000020E0B20729F00196A11DB11DB69BF3CFDD
:100B1000C49AC49888EB8FB9779BFECF8FB18DE2D2
:100B20008FB9779BFECF8FB1C49AC49800000000A4
:100B3000000080E090E0A0E0B0E00BC0813A26E841
:100B4000920721E0A20720E0B20729F00196A11D3B
:100B5000B11DB69BF3CFC49AC49888EB8FB9779B2D
:100B6000FECF8FB184ED8FB9779BFECF8FB1C49A42
:100B7000C49800000000000080E090E0A0E0B0E039
:100B80000BC0813A26E8920721E0A20720E0B207D5
:100B900029F00196A11DB11DB69BF3CFC49A402F39
:100BA00055279A01386BC498832F99278FB9779B63
:100BB000FECF8FB12FB9779BFECF8FB1C49A942F00
:100BC000882797FDB4C120E030E0AC01440F551FE9
:100BD000CA018227932797FDB4C1220F331F440F08
:100BE000551FCA018227932797FDB6C1220F331FD5
:100BF000440F551FCA018227932797FDBAC1220FC0
:100C0000331F440F551FCA018227932797FDBEC18A
:100C1000220F331FFA01EE0FFF1FCF018227932708
:100C200097FDC2C1A901440F551F9F01220F331F19
:100C3000C9018427952797FDC6C1440F551F220F70
:100C4000331F2427352737FDCAC1BA01660F771F26
:100C5000002309F47DC010E0C498000000000000EB
:100C600080E090E0A0E0B0E00BC0813A26E8920777
:100C700021E0A20720E0B20729F00196A11DB11DD5
:100C8000B69BF3CFC49AFE01E10FF11D8081282F9E
:100C90003327386BC498832F99278FB9779BFECF62
:100CA0008FB12FB9779BFECF8FB1C49A80819927DE
:100CB000582F4427CB018427952797FD30C19B01EE
:100CC000220F331F440F551FCA018227932797FD18
:100CD0001FC1220F331F440F551FCA0182279327BC
:100CE00097FD0FC1220F331F440F551FCA018227E2
:100CF000932797FDFFC0220F331F440F551FCA01D2
:100D00008227932797FDEFC0220F331FFA01EE0FC2
:100D1000FF1FCF018227932797FDDDC0A901440F54
:100D2000551F9F01220F331FC9018427952797FD67
:100D3000CBC0440F551F220F331F2427352737FD03
:100D4000BBC0BA01660F771F1F5F011709F084CF80
:100D5000C49800000000000080E090E0A0E0B0E057
:100D60000BC0813A26E8920721E0A20720E0B207F3
:100D700029F00196A11DB11DB69BF3CFC49A9B012A
:100D80003070386BC498832F99278FB9779BFECF2B
:100D90008FB12FB9779BFECF8FB1C49AC498000052
:100DA0000000000080E090E0A0E0B0E00BC0813ADD
:100DB00026E8920721E0A20720E0B20729F0019679
:100DC000A11DB11DB69BF3CFC49A272F3327386BD3
:100DD000C498832F99278FB9779BFECF8FB12FB9F6
:100DE000779BFECF8FB1C49AC4980000000000002A
:100DF00080E090E0A0E0B0E00BC0813A26E89207E6
:100E000021E0A20720E0B20729F00196A11DB11D43
:100E1000B69BF3CFC49AC49888EB8FB9779BFECF6B
:100E20008FB18AEA8FB9779BFECF8FB1C49AC498ED
:100E300000000000000080E090E0A0E0B0E00BC007
:100E4000813A26E8920721E0A20720E0B20729F0C4
:100E50000196A11DB11DB69BF3CFC49AC49888EB2F
:100E60008FB9779BFECF8FB18AEA8FB9779BFECF80
:100E70008FB1C49AC49800000000000080E090E0A8
:100E8000A0E0B0E00BC0813A26E8920721E0A2077B
:100E900020E0B20729F00196A11DB11DB69BF3CF4A
:100EA000C49AC49882E88FB9779BFECF8FB188E04F
:100EB0008FB9779BFECF9BC0BA01660F771F81E287
:100EC00090E16827792740CF440F551F81E290E1D8
:100ED0004827592730CFA901440F551F81E290E1DF
:100EE000482759271ECF220F331F81E290E1282780
:100EF00039270CCF220F331F81E290E128273927B1
:100F0000FCCE220F331F81E290E128273927ECCE57
:100F1000220F331F81E290E128273927DCCE9B0185
:100F2000220F331F81E290E128273927CBCE21E21F
:100F300030E1AC01440F551FCA018227932797FF68
:100F40004CCE220F331F21623061440F551FCA015E
:100F50008227932797FF4ACE220F331F81E290E129
:100F600028273927440F551FCA018227932797FF47
:100F700046CE220F331F81E290E128273927440F04
:100F8000551FCA018227932797FF42CE220F331F96
:100F900081E290E128273927FA01EE0FFF1FCF01E8
:100FA0008227932797FF3ECEA901440F551F81E268
:100FB00090E1482759279F01220F331FC901842739
:100FC000952797FF3ACE440F551F81E290E14827BD
:100FD0005927220F331F2427352737FF36CEBA0172
:100FE000660F771F81E290E16827792731CE8FB1B4
:100FF000C49ADF91CF911F910F91089588E08AB92B
:1010000086E489B908951F920F920FB60F921124AA
:101010008F939F93EF93FF939CB18091EF0080FF9C
:1010200006C08091EF0082608093EF001EC09D306B
:1010300079F08091EE008336C0F48091EE00E82FC5
:10104000FF27E051FF4F90838F5F8093EE000DC02C
:10105000E091EE00FF27E051FF4F10821092EE006A
:101060008091EF0081608093EF00FF91EF919F915D
:101070008F910F900FBE0F901F901895982F8A3068
:1010800019F05D9BFECF05C05D9BFECF8DE08CB956
:10109000F8CF9CB980E090E008951F93CF93DF9341
:1010A000EC011881112371F021961A3039F05D9B03
:1010B000FECF1CB918811123B9F704C08DE00E943E
:1010C0003E08F5CFDF91CF911F910895BF92CF9247
:1010D000DF92EF92FF920F931F93CF93DF93CDB7E1
:1010E000DEB766970FB6F894DEBF0FBECDBFFE0128
:1010F000B296E190F190FA83E983BB248DE0C82E8B
:10110000D12CCC0EDD1EA8C0153249F01A3069F181
:101110005D9BFECF0894E11CF11C1CB99DC08701AA
:101120000F5F1F4FF7012181822F9927C0970A97E0
:1011300048F1F80181917F01893691F18A36C8F42E
:10114000823609F47CC0833609F086C0E981FA81D1
:101150003296FA83E983329710811A3009F478C005
:101160005D99DBCF5D9BFCCFD8CF8DE00E943E0820
:10117000CFCF8F3609F460C0883709F06DC040E1E9
:1011800050E010C02B830F5F1F4F1C82CE010396CF
:101190000E944109B82EF80181917F01893671F6CC
:1011A0004AE050E0E981FA813296FA83E983B60198
:1011B000929182910E947109F60181918823E9F749
:1011C0009F012C193D09215030408B2D992728175C
:1011D0003907F4F4B21A8B2D99271816190694F5CD
:1011E0008E010D5F1F4FF80120E3800F911F2193A7
:1011F0008E179F07E1F7E01BF10BE00FF11F108244
:10120000B601C8010E945F09B801C6010E946A09BF
:101210008D85882359F0F6019DE031968A3041F0A2
:101220005D9BFECF8CB980818823B9F7BB2414C0A5
:101230005D9BFECF9CB9F4CF48E050E0B3CF42E0D5
:1012400050E0B0CFE0E0F0E08E010D5F1F4FD5CF52
:101250008DE00E943E0884CFF7011081112309F030
:1012600053CF66960FB6F894DEBF0FBECDBFDF91A9
:10127000CF911F910F91FF90EF90DF90CF90BF9093
:101280000895FC0188279927E89421912032E9F3F9
:10129000293010F02E30C8F32B3241F02D3239F4C2
:1012A000689404C00E949209820F911D21912053DD
:1012B0002A30C0F31EF4909581959F4F0895FB014D
:1012C000DC010D900020E9F7119701900D920020AC
:1012D000E1F70895FB01DC0101900D920020E1F798
:1012E0000895FB019F01E8944230C4F04532B4F404
:1012F0004A3029F497FB1EF4909581959F4F642FF7
:1013000077270E94E709805D8A330CF0895D81931D
:10131000CB010097A1F716F45DE251931082C90149
:101320000C949A097AE0979F902D879F802D910DBC
:1013300011240895DC01FC01672F71917723E1F7F7
:10134000329704C07C916D9370836291AE17BF0792
:10135000C8F30895A1E21A2EAA1BBB1BFD010DC004
:10136000AA1FBB1FEE1FFF1FA217B307E407F50755
:1013700020F0A21BB30BE40BF50B661F771F881F31
:10138000991F1A9469F760957095809590959B01C7
:10139000AC01BD01CF01089597FB092E05260ED0A3
:1013A00057FD04D0D7DF0AD0001C38F45095409583
:1013B000309521953F4F4F4F5F4F0895F6F7909529
:1013C0008095709561957F4F8F4F9F4F0895AA1B11
:1013D000BB1B51E107C0AA1FBB1FA617B70710F020
:1013E000A61BB70B881F991F5A95A9F78095909552
:0813F000BC01CD010895FFCFFF
:1013F800557361727420496E697469616C696569B5
:101408007372740D0A0070696E670050433A0900E0
:101418000D0A00426F743A09000A0000000000003B
:1014280000000000000000000000000000000000B4
:1014380000000000000000000000000000000000A4
:101448000000000000000000000000000000000094
:101458000000000000000000000000000000000084
:101468000000000000000000000000000000000074
:0E147800000000000000000000000000000066
:00000001FF
