:100000000C942A000C9445000C9445000C94450077
:100010000C9445000C9445000C9445000C9445004C
:100020000C9445000C9417010C9445000C940403A7
:100030000C9445000C9445000C9445000C9445002C
:100040000C9445000C9445000C9445000C9445001C
:100050000C94450011241FBECFE5D4E0DEBFCDBF18
:1000600010E0A0E6B0E0E6E7F7E002C005900D92F0
:10007000A638B107D9F710E0A6E8B0E001C01D929C
:10008000AE38B107E1F70C9447000C940000CDE3C3
:10009000D4E0DEBFCDBF80913A00847F80933A00E8
:1000A00080913B00836080933B00809137008C609F
:1000B00080933700809138008C60809338008FEFF8
:1000C000809334008FEF809335000E9408010E94D6
:1000D0008202789481E00E94DD01882331F08091D2
:1000E000380098E089278093380082E00E94DD0183
:1000F000882331F482E00E940002882309F406C0BC
:100100008091380098E08927809338008091890099
:100110009927847090700097E9F283E00E9423028F
:100120009A83898389819A8148979C01442755271E
:100130008DE593E9A0E0B0E0BC01CD010E946A0327
:10014000DA01C9019C838B83CE0105964AE050E019
:10015000BC018B819C810E942D038B819C8123E0BB
:10016000893E920750F080E690E00E94B7028091AD
:1001700038008B7F8093380009C0CE0105960E941D
:10018000B702809138008460809338008B819C8115
:100190008033910518F48FE0809335008B819C812A
:1001A0008033910519F48EE0809335008B819C811A
:1001B0008133910519F48CE0809335008B819C810B
:1001C0008233910519F488E0809335008B819C81FE
:1001D0008333910519F480E1809335008B819C81F4
:1001E0008433910519F480E3809335008B819C81E1
:1001F0008533910519F480E7809335008B819C81CC
:100200008633910508F466CF80EF8093350062CF86
:10021000CF93DF93CDB7DEB784E080935300809116
:100220005900816080935900DF91CF9108951F920A
:100230000F920FB60F9211242F933F934F935F931A
:100240006F937F938F939F93AF93BF93EF93FF939E
:10025000CF93DF93CDB7DEB780918A008F5F809315
:100260008A0080918A008370882331F08091890010
:100270008E7F8093890005C0809189008160809382
:10028000890080918A009EE1692F0E945E03892F78
:10029000882331F0809189008D7F8093890005C08B
:1002A0008091890082608093890080918A0094E126
:1002B000692F0E945E03892F882331F08091890085
:1002C0008B7F8093890005C0809189008460809332
:1002D00089000E947E01DF91CF91FF91EF91BF9144
:1002E000AF919F918F917F916F915F914F913F91CE
:1002F0002F910F900FBE0F901F901895CF93DF9303
:10030000CDB7DEB721970FB6F894DEBF0FBECDBFD5
:1003100080913900982F909580918D00892789834D
:1003200090918600898189238095809386009091A1
:100330008600809187009827898189238093870090
:1003400090918600809187009823898189238983F1
:1003500090918D008981892780938D0090918D00E7
:100360008981982380918C00892B80938C008091C7
:100370008D00992786709070009719F48DE780930F
:10038000880080918800815080938800882361F4E0
:1003900089E18093880080918D00982F96708091DC
:1003A0008B00892B80938B0021960FB6F894DEBFCB
:1003B0000FBECDBFDF91CF910895CF93DF93CDB71F
:1003C000DEB721970FB6F894DEBF0FBECDBF89838D
:1003D000F894998180918C008923898390918C0075
:1003E0008981892780938C00789489819927219627
:1003F0000FB6F894DEBF0FBECDBFDF91CF91089549
:10040000CF93DF93CDB7DEB721970FB6F894DEBF59
:100410000FBECDBF8983F894998180918B00892389
:10042000898390918B008981892780938B007894B0
:100430008981992721960FB6F894DEBF0FBECDBFF4
:10044000DF91CF910895CF93DF93CDB7DEB7249797
:100450000FB6F894DEBF0FBECDBF89831C821B820E
:1004600087E8809326008981809327008091270068
:10047000806C809327008091260080648093260002
:1004800080912600992780749070009709F0F8CF2A
:100490001A828A818830D8F4809126008064809303
:1004A000260080912600992780749070009709F0AB
:1004B000F8CF2B813C818091240090912500820F00
:1004C000931F9C838B838A818F5F8A83E2CF9FE710
:1004D000809126008923809326008B819C819695AC
:1004E000879596958795969587959C838B838B8129
:1004F0009C8124960FB6F894DEBF0FBECDBFDF916E
:10050000CF910895CF93DF93CDB7DEB7109240001F
:1005100085E08093290088E980932A0086E880930B
:10052000400083E690E00E94B702DF91CF910895EA
:10053000CF93DF93CDB7DEB721970FB6F894DEBF28
:100540000FBECDBF898380912B0099278072907058
:10055000009709F4F8CF898180932C0021960FB67B
:10056000F894DEBF0FBECDBFDF91CF910895CF933A
:10057000DF93CDB7DEB722970FB6F894DEBF0FBE7C
:10058000CDBF9A838983E981FA818081882359F0DC
:10059000E981FA8180810E94980289819A8101967D
:1005A0009A838983F0CF8DE00E94980222960FB63D
:1005B000F894DEBF0FBECDBFDF91CF910895CF93EA
:1005C000DF93CDB7DEB727970FB6F894DEBF0FBE27
:1005D000CDBF9A8389839E012D5F3F4FE981FA81C8
:1005E000808199274AE050E0B9010E942D03CE0195
:1005F00003960E94B70227960FB6F894DEBF0FBE8F
:10060000CDBFDF91CF9108951F920F920FB60F9239
:1006100011248F939F93CF93DF93CDB7DEB72197AC
:10062000DEBFCDBF80912C00898380912B0099275C
:1006300080729070009709F4F8CF898180932C0024
:100640002196F894DEBFCDBFDF91CF919F918F911E
:100650000F900FBE0F901F901895FB019F01E8941B
:100660004230C4F04532B4F44A3029F497FB1EF40A
:10067000909581959F4F642F77270E94A703805DF7
:100680008A330CF0895D8193CB010097A1F716F4B2
:100690005DE251931082C9010C944E03DC01FC0110
:1006A00001900020E9F73297AE17BF0730F47C9134
:1006B0006081708331976D93F7CF0895991B79E02E
:1006C00004C0991F961708F0961B881F7A95C9F7E2
:1006D0008095089597FB092E05260ED057FD04D06E
:1006E00014D00AD0001C38F45095409530952195CF
:1006F0003F4F4F4F5F4F0895F6F790958095709557
:1007000061957F4F8F4F9F4F0895A1E21A2EAA1B2C
:10071000BB1BFD010DC0AA1FBB1FEE1FFF1FA217B1
:10072000B307E407F50720F0A21BB30BE40BF50BAE
:10073000661F771F881F991F1A9469F76095709537
:10074000809590959B01AC01BD01CF010895AA1B36
:10075000BB1B51E107C0AA1FBB1FA617B70710F0AC
:10076000A61BB70B881F991F5A95A9F780959095DE
:06077000BC01CD0108955B
:100776004E41000D55617274207775726465207262
:1007860069636874696720696E697469616C697305
:06079600696572740000A9
:00000001FF
