:100000000C942A000C9447000C9447000C94470071
:100010000C9447000C9447000C9447000C94470044
:100020000C9447000C9447000C9447000C94C707AD
:100030000C9447000C9447000C9447000C94470024
:100040000C9447000C9447000C9447000C94470014
:100050000C94470011241FBECFE5D4E0DEBFCDBF16
:1000600010E0A0E6B0E0ECE1F5E102C005900D92F1
:10007000A23FB107D9F711E0A2EFB0E001C01D9295
:10008000AE35B107E1F70E9449000C948D0A0C943B
:1000900000000F931F93CF93DF93CDB7DEB7C45605
:1000A000D0400FB6F894DEBF0FBECDBF80916C007C
:1000B00090916D009A83898382E6FE0133961192B6
:1000C0008A95E9F70E944F0887B38C6087BBC29A74
:1000D000C39A80E690E00E94BB070E941E0280E265
:1000E00096E00E94D20144E061E085E00E94F401C4
:1000F00080E895E20E94970166E080E00E947A0124
:1001000078948E010F5F1F4FC8010E94A3028823BD
:1001100091F4C8010E94F0078130B1F761E0C80195
:100120000E94B70488B394E0892788BBC8010E9465
:10013000A302882371F3C8010E94BB0788B398E02B
:10014000892788BBE6CF9C0170E0762F6627CB011C
:100150008227932797FD41C0220F331F660F771F19
:10016000C9018627972797FD45C0220F331F660FC9
:10017000771FC9018627972797FD49C0220F331F94
:10018000660F771FC9018627972797FD4DC0220F5D
:10019000331F660F771FC9018627972797FD51C028
:1001A000220F331F660F771FC9018627972797FDF8
:1001B00055C0220F331F660F771FC9018627972767
:1001C00097FD59C0220F331F660F771F62277327D1
:1001D00077FD5DC0220F331F60C0220F331F81E205
:1001E00090E128273927660F771FC90186279727AF
:1001F00097FFBBCF220F331F81E290E128273927D9
:10020000660F771FC9018627972797FFB7CF220F61
:10021000331F81E290E128273927660F771FC90134
:100220008627972797FFB3CF220F331F81E290E1F4
:1002300028273927660F771FC9018627972797FF39
:10024000AFCF220F331F81E290E128273927660FB5
:10025000771FC9018627972797FFABCF220F331F40
:1002600081E290E128273927660F771FC901862789
:10027000972797FFA7CF220F331F81E290E128270E
:100280003927660F771F6227732777FFA3CF220FC7
:10029000331F81E290E128273927C90108959C0185
:1002A000C498892F99278FB9779BFECF8FB12FB92B
:1002B000779BFECF2FB190E0982F8827C49A820FAA
:1002C000911D0895C49800000000000080E090E0B7
:1002D000A0E0B0E00BC0813A26E8920721E0A20737
:1002E00020E0B20729F00196A11DB11DB69BF3CF06
:1002F000C49A0895282F30E027703070386970E074
:100300006F70707062957295707F7627607F762728
:10031000262B372BC498832F99278FB9779BFECF35
:100320008FB12FB9779BFECF8FB1C49A089522E089
:1003300087399207B0F125E188319207D0F49C010A
:1003400040E050E060E678EA80E090E00E945E0ADB
:10035000215030402068366CC498832F99278FB97C
:10036000779BFECF8FB12FB9779BFECF8FB1C49A09
:1003700008959C0140E050E06CEF72E485E090E06D
:100380000E943C0A21503040366CC498832F992734
:100390008FB9779BFECF8FB12FB9779BFECF8FB1EF
:1003A000C49A08958036910560F420E630EA80EA28
:1003B000C4988FB9779BFECF8FB12FB9779BFECFB3
:1003C00010C02FE08034920728F49C01306A832FFC
:1003D0009927EECF8FE39FE09C01306A832F992706
:1003E000E7CF8FB1C49A0895282F30E0277030707E
:1003F000220F331F22953295307F3227207F3227FC
:1004000050E047705070242B352B346970E06370D6
:100410007070660F771F660F771F660F771F262B8A
:10042000372BC498832F99278FB9779BFECF8FB135
:100430002FB9779BFECF8FB1C49A089587B3806B95
:1004400087BBBE98C49A83E58DB98EB18EB98FEF04
:100450009BE6FC013197F1F7FC013197F1F7FC01C4
:100460003197F1F7FC013197F1F7FC013197F1F782
:10047000FC013197F1F7FC013197F1F7FC0131975D
:10048000F1F7FC013197F1F70197F1F7C49880EC8F
:100490008FB9779BFECF8FB180EE8FB9779BFECF60
:1004A0008FB1C49AC49880E88FB9779BFECF8FB183
:1004B00087ED8FB9779BFECF8FB1C49AC49882EC39
:1004C0008FB9779BFECF8FB18BEA8FB9779BFECF29
:1004D0008FB1C49AC4988AEC8FB9779BFECF8FB145
:1004E00081E88FB9779BFECF8FB1C49AC49880EE14
:1004F0008FB9779BFECF8FB11FB8779BFECF8FB19F
:10050000C49AC49888EC8FB9779BFECF8FB11FB87F
:10051000779BFECF8FB1C49AC49884EC8FB9779B38
:10052000FECF8FB187EF8FB9779BFECF8FB1C49A83
:10053000C4981FB8779BFECF8FB11FB8779BFECFB3
:100540008FB1C49A0895EF92FF921F93CF93DF93D8
:100550007C01C49882E88FB9779BFECF8FB188EC7D
:100560008FB9779BFECF8FB1C49AC4988AEC8FB9AC
:10057000779BFECF8FB181E88FB9779BFECF8FB18C
:10058000C49AC4988AEC8FB9779BFECF8FB183E869
:100590008FB9779BFECF8FB1C49AC498000000003A
:1005A000000080E090E0A0E0B0E00BC0813A26E8D7
:1005B000920721E0A20720E0B20729F00196A11DD1
:1005C000B11DB69BF3CFC49AC49880EB8FB9779BCB
:1005D000FECF8FB11FB8779BFECF8FB1C49A182F73
:1005E000893C08F018ECC12FD0E09C2F882717FD1C
:1005F00058C120E030E0AC01440F551FC9018427E9
:10060000952797FD58C1220F331F440F551FC9016D
:100610008427952797FD5AC1220F331F440F551F7A
:10062000C9018427952797FD5EC1220F331F440F10
:10063000551FC9018427952797FD62C1220F331FDB
:10064000BA01660F771FC9018627972797FD66C1F4
:10065000A901440F551F9B01220F331FCA01822796
:10066000932797FD6AC1440F551F220F331F24277C
:10067000352737FD6EC1440F551F112309F477C08C
:10068000F70160E0C49800000000000080E090E006
:10069000A0E0B0E00BC0813A36E8930731E0A30751
:1006A00030E0B30729F00196A11DB11DB69BF3CF31
:1006B000C49AC49880EB8FB9779BFECF2FB11FB837
:1006C000779BFECF8FB130E0322F2227C49A280FBC
:1006D000311D208330E0322F2227C901842795273E
:1006E00097FDD8C0440F551F220F331FCA01822720
:1006F000932797FDC8C0440F551F220F331FCA010F
:100700008227932797FDB8C0440F551F220F331F30
:10071000CA018227932797FDA8C0440F551F220FB7
:10072000331FCA018227932797FD98C0440F551F96
:10073000220F331FCA018227932797FD88C0440FD9
:10074000551F220F331FCA018227932797FD78C0B8
:10075000440F551F220F331F2427352737FD69C04B
:10076000440F551F6F5F3196611709F08BCFEC0E68
:10077000FD1EF7011182C49800000000000080E017
:1007800090E0A0E0B0E00BC0813AF6E89F07F1E00E
:10079000AF07F0E0BF0729F00196A11DB11DB69B80
:1007A000F3CFC49AC49880EB8FB9779BFECF6FB11B
:1007B0001FB8779BFECF2FB1C49AC49800000000E9
:1007C000000080E090E0A0E0B0E00BC0813A36E8A5
:1007D000930731E0A30730E0B30729F00196A11D8C
:1007E000B11DB69BF3CFC49AC49880EB8FB9779BA9
:1007F000FECF3FB11FB8779BFECF9FB1C49AC4987C
:1008000082E88FB9779BFECF8FB188E08FB9779B55
:10081000FECF8FB1C49A30E0892F90E0982F8827BF
:10082000822B932B8417950709F49AC0C0E0D0E07F
:1008300097C0440F551F81E290E14827592792CF76
:10084000440F551F81E290E14827592783CF440F79
:10085000551F81E290E14827592773CF440F551F58
:1008600081E290E14827592763CF440F551F81E269
:1008700090E14827592753CF440F551F81E290E15B
:100880004827592743CF440F551F81E290E148275D
:10089000592733CF440F551F81E290E1482759274C
:1008A00023CF21E230E1AC01440F551FC901842759
:1008B000952797FFA8CE220F331F21623061440F86
:1008C000551FC9018427952797FFA6CE220F331FF6
:1008D00081E290E128273927440F551FC901842759
:1008E000952797FFA2CE220F331F81E290E12827A0
:1008F0003927440F551FC9018427952797FF9ECE9E
:10090000220F331F81E290E128273927BA01660FB1
:10091000771FC9018627972797FF9ACEA901440F11
:10092000551F81E290E1482759279B01220F331F71
:10093000CA018227932797FF96CE440F551F81E265
:1009400090E148275927220F331F2427352737FFE7
:1009500092CE440F551F81E290E1482759278DCE52
:10096000CE01DF91CF911F91FF90EF900895CF932B
:10097000DF93EC01C49882E88FB9779BFECF8FB1EB
:1009800088E38FB9779BFECF8FB1C49AC4980000DB
:100990000000000080E090E0A0E0B0E00BC0813AF1
:1009A00026E8920721E0A20720E0B20729F001968D
:1009B000A11DB11DB69BF3CFC49AC49888EB8FB923
:1009C000779BFECF8FB18AEA8FB9779BFECF8FB12D
:1009D000C49AC49800000000000080E090E0A0E00D
:1009E000B0E00BC0813A26E8920721E0A20720E0A0
:1009F000B20729F00196A11DB11DB69BF3CFC49A91
:100A0000C49888EB8FB9779BFECF8FB18AEA8FB9F4
:100A1000779BFECF8FB1C49AC498000000000000FD
:100A200080E090E0A0E0B0E00BC0813A26E89207B9
:100A300021E0A20720E0B20729F00196A11DB11D17
:100A4000B69BF3CFC49AC49888EB8FB9779BFECF3F
:100A50008FB18AEA8FB9779BFECF8FB1C49AC498C1
:100A600000000000000080E090E0A0E0B0E00BC0DB
:100A7000813A26E8920721E0A20720E0B20729F098
:100A80000196A11DB11DB69BF3CFC49AC49888EB03
:100A90008FB9779BFECF8FB18DE28FB9779BFECF59
:100AA0008FB1C49AC49800000000000080E090E07C
:100AB000A0E0B0E00BC0813A26E8920721E0A2074F
:100AC00020E0B20729F00196A11DB11DB69BF3CF1E
:100AD000C49AC49888EB8FB9779BFECF8FB184ED11
:100AE0008FB9779BFECF8FB1C49AC49800000000E5
:100AF000000080E090E0A0E0B0E00BC0813A26E882
:100B0000920721E0A20720E0B20729F00196A11D7B
:100B1000B11DB69BF3CFC49A262F30E0A901586BC4
:100B2000C498852F99278FB9779BFECF8FB14FB986
:100B3000779BFECF8FB1C49A922F882727FDB2C131
:100B400020E030E0AC01440F551FC90184279527F0
:100B500097FDB2C1220F331F440F551FC9018427CF
:100B6000952797FDB4C1220F331F440F551FC901AC
:100B70008427952797FDB8C1220F331F440F551FB7
:100B8000C9018427952797FDBCC1220F331FFA01A5
:100B9000EE0FFF1FC9018E279F2797FDC0C1A90136
:100BA000440F551F9F01220F331FCA01822793272D
:100BB00097FDC4C1440F551F220F331F242735272B
:100BC00037FDC8C1FA01EE0FFF1F662309F47BC091
:100BD00070E0C49800000000000080E090E0A0E019
:100BE000B0E00BC0813A26E8920721E0A20720E09E
:100BF000B20729F00196A11DB11DB69BF3CFC49A8F
:100C00008881282F30E0386BC498832F99278FB9BB
:100C1000779BFECF8FB12FB9779BFECF8FB1C49A50
:100C2000888190E0582F4427CA018E279F2797FD7F
:100C300031C19F01220F331F440F551FC901842763
:100C4000952797FD20C1220F331F440F551FC9015F
:100C50008427952797FD10C1220F331F440F551F7E
:100C6000C9018427952797FD00C1220F331F440F28
:100C7000551FC9018427952797FDF0C0220F331F08
:100C8000FA01EE0FFF1FC9018E279F2797FDDEC0D7
:100C9000A901440F551F9F01220F331FCA0182274C
:100CA000932797FDCCC0440F551F220F331F2427D5
:100CB000352737FDBCC0FA01EE0FFF1F7F5F21967D
:100CC000761709F086CFC49800000000000080E08D
:100CD00090E0A0E0B0E00BC0813A26E8920721E066
:100CE000A20720E0B20729F00196A11DB11DB69B15
:100CF000F3CFC49A9F013070386BC498832F992723
:100D00008FB9779BFECF8FB12FB9779BFECF8FB175
:100D1000C49AC49800000000000080E090E0A0E0C9
:100D2000B0E00BC0813A26E8920721E0A20720E05C
:100D3000B20729F00196A11DB11DB69BF3CFC49A4D
:100D40002F2F3327386BC498832F99278FB9779B20
:100D5000FECF8FB12FB9779BFECF8FB1C49AC498C5
:100D600000000000000080E090E0A0E0B0E00BC0D8
:100D7000813A26E8920721E0A20720E0B20729F095
:100D80000196A11DB11DB69BF3CFC49AC49888EB00
:100D90008FB9779BFECF8FB18AEA8FB9779BFECF51
:100DA0008FB1C49AC49800000000000080E090E079
:100DB000A0E0B0E00BC0813A26E8920721E0A2074C
:100DC00020E0B20729F00196A11DB11DB69BF3CF1B
:100DD000C49AC49888EB8FB9779BFECF8FB18AEA0B
:100DE0008FB9779BFECF8FB1C49AC49800000000E2
:100DF000000080E090E0A0E0B0E00BC0813A26E87F
:100E0000920721E0A20720E0B20729F00196A11D78
:100E1000B11DB69BF3CFC49AC49882E88FB9779B73
:100E2000FECF8FB188E08FB9779BFECF9BC0FA01D0
:100E3000EE0FFF1F81E290E1E827F9273FCF440F33
:100E4000551F81E290E1482759272FCFA901440F70
:100E5000551F81E290E1482759271DCF220F331FEC
:100E600081E290E1282739270BCF220F331F81E23F
:100E700090E128273927FBCE220F331F81E290E132
:100E800028273927EBCE220F331F81E290E1282754
:100E90003927DBCE9F01220F331F81E290E1282703
:100EA0003927CACE21E230E1AC01440F551FC901F8
:100EB0008427952797FF4ECE220F331F2162306182
:100EC000440F551FC9018427952797FF4CCE220F49
:100ED000331F81E290E128273927440F551FC901AC
:100EE0008427952797FF48CE220F331F81E290E198
:100EF00028273927440F551FC9018427952797FFB5
:100F000044CE220F331F81E290E128273927FA01CE
:100F1000EE0FFF1FC9018E279F2797FF40CEA90123
:100F2000440F551F81E290E1482759279F01220F66
:100F3000331FCA018227932797FF3CCE440F551FCA
:100F400081E290E148275927220F331F24273527B4
:100F500037FF38CEFA01EE0FFF1F81E290E1E8275C
:100F6000F92733CE8FB1C49ADF91CF9108955D9B5D
:100F7000FECF8CB90895FC018081882339F0319629
:100F80005D9BFECF8CB980818823C9F708951F929D
:100F90000F920FB60F9211242F933F934F935F93AD
:100FA0006F937F938F939F93AF93BF93EF93FF9331
:100FB0006CB186E591E00E94A1095D9BFECFFF9197
:100FC000EF91BF91AF919F918F917F916F915F91C1
:100FD0004F913F912F910F900FBE0F901F9018953A
:100FE0000F931F93CF93DF93CDB7DEB721970FB643
:100FF000F894DEBF0FBECDBF8C01BE016F5F7F4F87
:1010000086E591E00E94C609882331F48981F801C0
:10101000808381E090E002C080E090E021960FB6EE
:10102000F894DEBF0FBECDBFDF91CF911F910F911E
:1010300008950F931F93CF93DF93CDB7DEB7279714
:101040000FB6F894DEBF0FBECDBF4AE050E08E0170
:101050000F5F1F4FB8010E94EC098981882341F07E
:10106000F80131965D9BFECF8CB980818823C9F74A
:1010700027960FB6F894DEBF0FBECDBFDF91CF919C
:101080001F910F910895FC018491882339F05D9B95
:10109000FECF8CB9319684918823C9F7089510BC8E
:1010A00086E489B988E98AB986E880BDE0EDF0E098
:1010B0008091D00031965D9BFECF8CB980818823D2
:1010C000C9F744E662EF70E086E591E00E94970977
:1010D00008954F925F926F927F928F929F92AF92FC
:1010E000BF92CF92DF92EF92FF920F931F93CF9315
:1010F000DF93CDB7DEB727970FB6F894DEBF0FBEEC
:10110000CDBFE114F1040105110509F4F9C0C801CE
:10111000B70128EE33E040E050E00E943C0A39017C
:101120004A01CA01B9012CE330E040E050E00E94DE
:101130003C0A59016A01CA01B9012CE330E040E0E0
:1011400050E00E943C0A79018A01022F10E08CE3F2
:1011500090E09C01029FC001039F900D129F900D93
:101160001124AA2797FDA095BA2FA81AB90ACA0A6E
:10117000DB0A80E19EE09C01029FC001039F900D6D
:10118000129F900D1124AA2797FDA095BA2F681AD7
:10119000790A8A0A9B0AC601B5012CE330E040E0D7
:1011A00050E00E941D0A661A770A880A990A39E0F7
:1011B0003E1508F096C04AE050E02E010894411C0C
:1011C000511CB201C8010E94EC098981882341F0B9
:1011D000F20131965D9BFECF8CB980818823C9F7DF
:1011E0005D9BFECF8AE38CB98AE0A816B104C104E6
:1011F000D10408F47BC04AE050E0B201C5010E946E
:10120000EC098981882341F0F20131965D9BFECF84
:101210008CB980818823C9F75D9BFECF8AE38CB9A6
:101220002AE0621671048104910408F464C04AE063
:1012300050E0B201C3010E94EC098981882341F08A
:10124000F20131965D9BFECF8CB980818823C9F76E
:101250005D9BFECF8AE38CB980E89EEE9C01029FE5
:10126000C001039F900D129F900D1124AA2797FD96
:10127000A095BA2FE81AF90A0A0B1B0BC601B50193
:1012800020E63AEE40E050E00E941D0AE61AF70A16
:10129000080B190BC401B30128EE33E040E050E025
:1012A0000E941D0AE61AF70A080B190BC801B701BC
:1012B00024E630E040E050E00E943C0ADA01C90137
:1012C0004AE050E0B2010E94EC0989818823C1F014
:1012D000F20131965D9BFECF8CB980818823C9F7DE
:1012E0000FC05D9BFECF80E38CB965CF5D9BFECFC9
:1012F00080E38CB980CF5D9BFECF80E38CB997CF24
:1013000027960FB6F894DEBF0FBECDBFDF91CF9109
:101310001F910F91FF90EF90DF90CF90BF90AF9013
:101320009F908F907F906F905F904F900895FC01F9
:10133000108275836483738362834183478346830A
:101340000895CF93DF93DC019C91ED01898198177B
:10135000C0F49FB7F894ED01EC81FD8161938F811A
:10136000815059F0ED018F83FD83EC838C918F5F69
:101370008C939FBF81E090E006C08981E81BF10952
:10138000F1CF80E090E0DF91CF910895CF93DF938C
:10139000DC018C918823D9F02FB7F894ED01EA8114
:1013A000FB819E818191EB018883915059F0ED0181
:1013B000FB83EA839E838C9181508C932FBF80E0C6
:1013C00090E007C0ED019981E91BF109F0CF81E0C0
:1013D00090E0DF91CF910895FB019F01E8944230A6
:1013E000C4F04532B4F44A3029F497FB1EF49095CA
:1013F00081959F4F642F77270E94790A805D8A33F9
:101400000CF0895D8193CB010097A1F716F45DE2A2
:1014100051931082C9010C940D0ADC01FC01672F65
:1014200071917723E1F7329704C07C916D937083BB
:101430006291AE17BF07C8F30895629FD001739FF2
:10144000F001829FE00DF11D649FE00DF11D929F60
:10145000F00D839FF00D749FF00D659FF00D99279F
:10146000729FB00DE11DF91F639FB00DE11DF91FC3
:10147000BD01CF0111240895A1E21A2EAA1BBB1BA6
:10148000FD010DC0AA1FBB1FEE1FFF1FA217B30750
:10149000E407F50720F0A21BB30BE40BF50B661F66
:1014A000771F881F991F1A9469F76095709580952A
:1014B00090959B01AC01BD01CF01089597FB092ECA
:1014C00005260ED057FD04D0D7DF0AD0001C38F413
:1014D00050954095309521953F4F4F4F5F4F089560
:1014E000F6F790958095709561957F4F8F4F9F4F40
:1014F0000895AA1BBB1B51E107C0AA1FBB1FA6175B
:10150000B70710F0A61BB70B881F991F5A95A9F7AC
:0C15100080959095BC01CD010895FFCF9F
:10151C000D55534220544553540D0A000A00000047
:10152C0000000000000000000000000000000000AF
:10153C00000000000000000000000000000000009F
:10154C00000000000000000000000000000000008F
:10155C00000000000000000000000000000000007F
:10156C00000000000000000000000000000000006F
:10157C00000000000000000000000000000000005F
:10158C005561727420777572646520726963687432
:10159C00696720696E697469616C697369657274D5
:0215AC000A0033
:00000001FF
