:100000000C9475020C9490020C9490020C94900243
:100010000C9440080C9490020C9490020C94900262
:100020000C9490020C9411060C9490020C94D50739
:100030000C9490020C9490020C9490020C949002F8
:100040000C9490020C9490020C9490020C949002E8
:100050000C9490020C202A2A2A2048616C6C6F2193
:10006000202A2A2A0D0A00204963682062696E202E
:1000700065696E206B6C65696E657220526F626F88
:100080007465722E0D0A00424F543A5C3E00424F96
:10009000543A5C3E000D0A000D0A20446965736500
:1000A0006E2042656665686C206B656E6E652069C2
:1000B0006368206E696368742E0D0A002044752001
:1000C00068617374202200222065696E6765676528
:1000D00062656E2E20000C202A2A2A2048616C6C52
:1000E0006F21202A2A2A00204963682062696E2035
:1000F00065696E206B6C65696E657220526F626F08
:100100007465722E20576173206D6F656368746526
:100110007374206475206D6974206D6972206D613F
:100120006368656E3F00204D69742064656D2042F0
:10013000656665686C3A00202D203F202020202035
:1001400020205A65696765206963682064696520B5
:10015000616C6C652042656665686C6520646965E4
:10016000206963682076657273746568652E002067
:100170002D2073746174757320206B616E6E7374BF
:1001800020647520736568656E2C20776965206929
:100190006368206D69636820667565686C652E000C
:1001A000202D20636C7320202020206C6F657363EA
:1001B00068742064752064656E2042696C647363A2
:1001C0006869726D2E00202D206D6F7665202020CD
:1001D000206B616E6E7374206475206D6963682096
:1001E00066616872656E206C617373656E2E0020A7
:1001F0002D2064656D6F2020202066616872652067
:100200006963682065696E2077656E696720686933
:100210006E20756E64206865722E00202D20646546
:100220006275672020205A656967652069636820C8
:1002300064697220416B7475656C6C6520537461E0
:100240007475736D656C64756E67656E2E000C2039
:100250002A2A2A20486921202A2A2A0D0A00204910
:1002600063682062696E20686575746520736368D1
:100270006F6E2073656974200020756E74657277E7
:100280006567732E0D0A00204963682066756568EE
:100290006C65206D6963682067757420756E6420D5
:1002A0006D65696E6520416B6B757370616E6E75FF
:1002B0006E67206265747261656774206E6F636833
:1002C0003A00203132560D0A000C202A2A2A2047F3
:1002D00069622047617321202A2A2A0D0A00204DD5
:1002E00069742064656E20506665696C746173740E
:1002F000656E206B616E6E7374206475206D69632A
:1003000068206E756E207374657565726E2E0D0AA9
:1003100000204D697420457363206265656E6465D5
:100320007374206475206469652046616872742E58
:10033000000C202A2A2A2044454D4F202A2A2A2010
:100340000D0A00204963682066616872652065694E
:100350006E2077656E69672068696E20756E64200F
:100360006865722E0D0A00204D6974204573632064
:100370006265656E646573742064752064696520C8
:1003800046616872742E000C202A2A2A20444542B5
:100390005547202A2A2A200D0A0020496368206B2D
:1003A000616E6E2064697220766572736368696538
:1003B00064656E65204445425547696E666F6D61A0
:1003C00074696F6E656E20617573676562656E3AFC
:1003D0000D0A00204D69742064656D2042656665D4
:1003E000686C3A0D0A00202D2064656275672063F1
:1003F0006D64202020202020676562652069636885
:100400002064697220616C6C6520676573656E6439
:10041000657465205A65696368656E206175732E21
:100420000D0A00202D20646562756720656E6320CB
:100430002020202020676562652069636820646948
:10044000652064696520616B7475656C6C656E20F0
:10045000456E636F6465727765727465206175734C
:100460002E0D0A00202D2064656275672072656775
:100470002020202020206765626520696368206451
:10048000697220616B7475656C6C65205265676C70
:1004900065727765727465206175732E0D0A002090
:1004A0002D2044696520416E7A6569676520626523
:1004B000656E64657374206475206D69742065735E
:1004C000636170652E0D0A000C000C204665686C97
:1004D000657220696E2064657220436F6D6D616E78
:1004E000646C696E6521210D0A0011241FBECFE5E1
:1004F000D4E0DEBFCDBF11E0A0E6B0E0EEEEF6E165
:1005000002C005900D92A035B107D9F711E0A0E522
:10051000B1E001C01D92A53FB107E1F70C9434048E
:100520000C9400008F929F92AF92BF92CF92DF9275
:10053000EF92FF920F931F93CF93DF93882E99240E
:10054000E401C80DD91D68E6A62E61E0B62EAC0EFA
:10055000BD1EF5012081318150E6C52E51E0D52E1A
:10056000CC0EDD1E48E5E42E41E0F42EEC0EFD1E1F
:1005700021153105B9F4F60131832083FE01E45AD7
:10058000FE4F31832083F70131832083FE01EC5A33
:10059000FE4F31832083C05BDE4F3983288360E0C8
:1005A000862F96C08E010C591E4F0E94DA05F80165
:1005B00091838083F50120813181281B390BF6015D
:1005C00031832083F70180819181820F931F918372
:1005D0008083805094402CF08FEF93E0F70191835B
:1005E0008083F7018081918181509C4F2CF481E0C0
:1005F0009CEFF70191838083BE016C5A7E4FDE0130
:10060000A45ABE4FF601408151818D919C91119762
:100610009A01281B390BFB0131832083C05BDE4F1D
:10062000F7018081918197FD0196959587959A01B3
:10063000240F351F820F931F998388838F3F910565
:1006400029F024F08FEF90E0998388838881998145
:1006500081509F4F24F481E09FEF998388834D93CD
:100660005C938114910429F021E082169104B1F089
:100670002BC0888199811816190624F463E080E064
:100680000E9471088881998197FF1EC0909581957D
:100690009F4F9983888363E081E014C088819981AA
:1006A0001816190624F460E083E00E94710888811E
:1006B000998197FF09C0909581959F4F9983888371
:1006C00061E083E00E9471086091520180915001C5
:1006D0000E949D08DF91CF911F910F91FF90EF90A5
:1006E000DF90CF90BF90AF909F908F9008950F9321
:1006F0001F93182F80E690E00E946D0686E790E039
:100700000E946D06012F1127000F111FF801E859F3
:10071000FE4F808191810E94A0068DE790E00E94AB
:100720006D0680E890E00E946D06F801E05AFE4FE9
:10073000808191810E94A0068DE790E00E946D0665
:1007400084E890E00E946D06F801E85AFE4F80812F
:1007500091810E94A0068DE790E00E946D068AE8D4
:1007600090E00E946D06F801EC5AFE4F8081918165
:100770000E94A0068DE790E00E946D0680E990E05F
:100780000E946D06005B1E4FF801808191810E94DE
:10079000A0068DE790E00E946D0688E990E00E9437
:1007A0006D061F910F910895EF92FF920F931F9383
:1007B0008BE990E00E946D0681EB90E00E946D064F
:1007C0000E94BE068AEC90E00E946D068091640152
:1007D000909165010E94A0068FEC90E00E946D064A
:1007E000809150019091510104E610E07FEFE72ED7
:1007F000F12C809F9001819F300D909F300D11242E
:10080000C901B7010E94130BCB010E94A00685ED20
:1008100090E00E946D068DED90E00E946D06809143
:100820006601909167010E94A0068FEC90E00E9403
:100830006D068091520190915301809F9001819F9C
:10084000300D909F300D1124C901B7010E94130B88
:10085000CB010E94A00682EE90E00E946D061F91DF
:100860000F91FF90EF900895CFE5D4E0DEBFCDBFAC
:100870000E947C060E94FF070E94B6080E94E805BD
:100880008A9A929884E590E00E948F0687E690E02D
:100890000E948F0687E890E00E948F06C0E078945F
:1008A0000E9405089B01AC0180917001909171013B
:1008B000A0917201B09173018C599F4FAF4FBF4F00
:1008C000281739074A075B0758F30E940508DC011F
:1008D000CB018093700190937101A0937201B0934A
:1008E000730180E00E94920281E00E9492020E94C5
:1008F000B2070E941C090E94C509182F0E94CC094A
:10090000812F99278B31910509F471C08C319105A4
:100910007CF48630910509F1873091051CF4059728
:10092000D1F06EC08C30910551F10D9751F168C036
:1009300082349105C9F18334910524F48134910501
:1009400011F15EC08434910509F443C085349105EA
:1009500009F446C055C0C1E053C080917001909128
:100960007101A0917201B091730180936C01909319
:100970006D01A0936E01B0936F01C2E041C0CBE066
:100980003FC0CDE03DC0C130D9F580916801909164
:1009900069014496909369018093680180916A018E
:1009A00090916B01449610C0C13051F5809168015F
:1009B00090916901449790936901809368018091B7
:1009C0006A0190916B01449790936B0180936A0147
:1009D00017C0C130A9F4109269011092680110C0CB
:1009E000C13071F410926B0110926A0109C010922B
:1009F00069011092680110926B0110926A01C0E0C7
:100A00008C2F99278B30910549F08C3091051CF47F
:100A1000029771F045CF0D9721F042CF0E94D40389
:100A20003FCF80E00E94770381E00E94770338CFB8
:100A300020917001309171014091720150917301C8
:100A400080916C0190916D01A0916E01B0916F0148
:100A5000281B390B4A0B5B0B20328EE4380780E0F1
:100A6000480780E0580709F480C021328EE4380737
:100A700080E0480780E0580788F520348FE1380788
:100A800080E0480780E0580709F466C021348FE110
:100A9000380780E0480780E0580780F4283B8BE067
:100AA000380780E0480780E0580709F452C02C5707
:100AB00035414040504009F462C0F2CE28398AE303
:100AC000380780E0480780E0580709F458C02C55E3
:100AD00034444040504009F442C0E2CE2C368BE60C
:100AE000380780E0480780E0580709F445C02D36F4
:100AF0008BE6380780E0480780E0580770F4243E12
:100B000087E5380780E0480780E0580759F1285A00
:100B100031464040504049F1C3CE243F8EE738076C
:100B200080E0480780E0580789F1253F8EE73807C5
:100B300080E0480780E0580730F4205335474040B4
:100B40005040E9F0ADCE285B38484040504049F174
:100B5000A7CE82E390E01CC08EE190E019C08CE348
:100B600090E016C080E590E013C082E390E090939F
:100B700069018093680119C084E690E009C0109271
:100B800069011092680182E390E006C086E990E076
:100B9000909369018093680190936B0180936A013F
:100BA0007FCE109269011092680110926B01109231
:100BB0006A0176CE2FB7F894E82FFF27EE0FFF1FBC
:100BC000E658FE4F80819181118210822FBF0895D7
:100BD00084B3807F84BB85B38F6085BB80E00E9437
:100BE000DA0581E00E94DA0582E083BF89B781607F
:100BF00089BF0895DC01CB01BC01CD0128EE33E0B3
:100C000040E050E00E94F40ADC01CB01BC01CD01C0
:100C100022E233E140E050E00E94480BCA01B901F2
:100C200008951F920F920FB60F9211242F933F93A6
:100C30004F935F938F939F9340E050E09A9941E0E8
:100C40009B9B02C083E04827989951E0999B02C082
:100C500083E058279091E900842F891B282F3327A0
:100C600027FD309520FF10C0980F9093E900227067
:100C7000307080917A0190917B01820F931F0197D0
:100C800090937B0180937A019091EA00852F891BD4
:100C9000282F332727FD309520FF10C0980F909301
:100CA000EA002270307080917C0190917D01820F6A
:100CB000931F019790937D0180937C019F918F9169
:100CC0005F914F913F912F910F900FBE0F901F900A
:100CD00018955D9BFECF8CB90895CF93DF93EC01FF
:100CE0008881882331F089910E9469068881882350
:100CF000D1F7DF91CF91089510BC85E089B988E9DB
:100D00008AB986E880BD8BEE90E00E946D064AE0CD
:100D10006EE771E088E891E00E94D3080895CF93D0
:100D2000DF93EC01FC018491882339F00E9469066D
:100D30002196FE0184918823C9F7DF91CF91089510
:100D4000CF93DF93CDB7DEB727970FB6F894DEBF0A
:100D50000FBECDBF4AE050E0BE016F5F7F4F0E94E3
:100D6000C30ACE0101960E946D0627960FB6F8942D
:100D7000DEBF0FBECDBFDF91CF9108952F923F927E
:100D80004F925F926F927F928F929F92AF92BF929B
:100D9000DF92EF92FF920F931F93CF93DF93CDB724
:100DA000DEB724970FB6F894DEBF0FBECDBF0E940A
:100DB000050869837A838B839C836115710581059E
:100DC000910509F4B7C028EE33E040E050E00E94FE
:100DD000260B29013A01CA01B9012CE330E040E0B9
:100DE00050E00E94260B49015A01CA01B9012CE3C7
:100DF00030E040E050E00E94260BD22E8CE3289F8A
:100E0000C0011124AA2797FDA095BA2F881A990A24
:100E1000AA0ABB0AC501B4012CE330E040E050E06F
:100E20000E94F40A9B01AC012D2C332480E19EE04A
:100E3000289EB001299E700D389E700D1124CB01A3
:100E4000AA2797FDA095BA2F820F931FA41FB51F45
:100E5000481A590A6A0A7B0AC301B20128EE33E034
:100E600040E050E00E94F40A7B018C01C501B4010E
:100E700020E63AEE40E050E00E94F40ADC01CB01AB
:100E8000E80EF91E0A1F1B1F80E89EEE289ED00167
:100E9000299EB00D389EB00D1124CD01AA2797FDD3
:100EA000A095BA2F8E0D9F1DA01FB11F29813A81D9
:100EB0004B815C81281B390B4A0B5B0B29833A83DE
:100EC0004B835C8339E03D1518F080E30E9469068E
:100ED000C1010E94A0068AE30E9469064AE08416C6
:100EE0009104A104B10418F480E30E946906C401CE
:100EF0000E94A0068AE30E9469065AE04516510442
:100F00006104710418F480E30E946906C2010E9422
:100F1000A0068AE30E94690669817A818B819C819F
:100F200024E630E040E050E00E94260BDA01C901DF
:100F30000E94A00624960FB6F894DEBF0FBECDBF68
:100F4000DF91CF911F910F91FF90EF90DF90BF90B5
:100F5000AF909F908F907F906F905F904F903F9059
:100F60002F900895CF93DF93CDB7DEB721970FB6BB
:100F7000F894DEBF0FBECDBFBE016F5F7F4F88E824
:100F800091E00E94FA08882329F48981992787FD36
:100F9000909502C08FEF9FEF21960FB6F894DEBFB9
:100FA0000FBECDBFDF91CF9108951F920F920FB664
:100FB0000F9211242F933F934F935F936F937F93DF
:100FC0008F939F93AF93BF93EF93FF938CB1682F51
:100FD00088E891E00E94DD085D9BFECFFF91EF91D4
:100FE000BF91AF919F918F917F916F915F914F9141
:100FF0003F912F910F900FBE0F901F9018958AE789
:1010000085BD89B7806489BF0895809176019091EC
:101010007701A0917801B0917901BA2FA92F982F6B
:10102000882720917501820F911DA11DB11DBC0162
:10103000CD0124E230E040E050E00E94260BCA01DE
:10104000B901089590917501980F809175018917E4
:10105000E1F708950F931F93CF93DF938C01C0E0C6
:10106000D0E0C817D9073CF484E20E9422082196F8
:10107000C017D107CCF3DF91CF911F910F91089545
:101080001F920F920FB60F9211248F939F93AF93DD
:10109000BF9384B5895284BD809175018F5F809321
:1010A000750180917501882399F480917601909162
:1010B0007701A0917801B09179010196A11DB11D30
:1010C0008093760190937701A0937801B093790192
:1010D000BF91AF919F918F910F900FBE0F901F9076
:1010E000189599278130910561F0823091051CF4A3
:1010F000892B21F00BC0029739F008C0AF98AE9A47
:1011000005C0AE98AF9A02C0AE98AF98772761300D
:10111000710569F0623071051CF4672B29F00895A0
:101120006230710539F00895AC98AD9A0895AD9884
:10113000AC9A0895AC98AD9808952FB7F894882389
:1011400031F0992781509F4F9BBD8ABD02C01BBCC7
:101150001ABC662339F0862F992781509F4F99BD7D
:1011600088BD02C019BC18BC2FBF08958D9A9598F0
:1011700084B3806C84BB8C9A949884B3806384BB62
:1011800060E0862F0E94710860E0862F0E949D0813
:1011900082E08FBD89E08EBD8FB580688FBD8FB531
:1011A00080628FBD0895FC01108275836483738310
:1011B00062834183478346830895FC019081818146
:1011C000981718F080E090E008959FB7F894A481F4
:1011D000B5816D938781815019F48181A81BB10974
:1011E0008783B583A48380818F5F80839FBF81E0E5
:1011F00090E00895CF93DF93FC01EB018081882379
:1012000019F481E090E015C02FB7F894A281B38162
:1012100096818D918883915019F49181A91BB10910
:10122000B383A28396838081815080832FBF80E027
:1012300090E0DF91CF910895CF93DF93982F8F3F68
:1012400009F49EC08D3009F068C0E0910D01F09165
:101250000E011082C1E9D1E0D0930E01C0930D01BF
:10126000109290016FE071E0CE010E94B90A892BC3
:1012700039F061E171E0CE010E94B90A892B11F4C5
:1012800084E062C066E171E0CE010E94B90A892B58
:1012900011F483E059C06DE171E0CE010E94B90AFA
:1012A000892B11F482E050C061E271E0CE010E940E
:1012B000B90A892B11F485E047C066E271E0CE01DE
:1012C0000E94B90A892B11F486E03EC06BE271E0FE
:1012D000CE010E94B90A892B11F48AE035C061E37E
:1012E00071E0CE010E94B90A892B11F48BE02CC069
:1012F0006BE371E0CE010E94B90A892B11F48CE0F6
:1013000023C065E471E081E991E00E94B90A892B6C
:1013100011F48DE019C081E017C08B31C1F40E9437
:10132000B2078B3581F40E94B207982F813441F0C7
:10133000823431F0833411F485E406C0843401F53D
:10134000909374011FC08BE1809374011BC08A309D
:10135000B9F08830A9F080919001803689F0E09151
:101360000D01F0910E019193F0930E01E0930D01A8
:10137000892F0E946906809190018F5F8093900170
:1013800010927401DF91CF91089580917401992793
:10139000089581E991E0089599278A30910509F42B
:1013A000C5C08B309105ECF48330910509F493C0EE
:1013B000843091055CF48130910541F182309105D2
:1013C0000CF0CFC0892B09F4D3C0CEC08530910575
:1013D00009F496C0853091058CF1069709F49BC0FD
:1013E000C3C08334910564F4813491050CF0C0C00E
:1013F0008E3091050CF4BCC04B9709F463C0B4C0A7
:1014000084549040029708F0AFC0089588E990E0B6
:101410000E948F068CEB90E00E948F060E94C90903
:101420000E946D0687EC90E00E948F060E94C90919
:10143000FC01808199270E94A00644C086ED90E0BF
:101440000E948F0685E990E00E948F0687EE90E06B
:101450000E948F0685E990E00E948F0686E291E067
:101460000E948F0685E990E00E948F0687E391E055
:101470000E948F0685E990E00E948F068FE691E03A
:101480000E948F0685E990E00E948F0680EA91E035
:101490000E948F0685E990E00E948F0686EC91E01D
:1014A0000E948F0685E990E00E948F068FEE91E002
:1014B0000E948F0685E990E00E948F068BE192E002
:1014C0000E948F0685E990E00E948F068EE890E0EA
:1014D0000E948F0608958EE492E00E948F068EE5AA
:1014E00092E00E948F060E94BE0689E792E00E9469
:1014F0008F0687E892E00E948F0682EC92E0E4CFAC
:1015000089EC92E00E948F068EED92E00E948F0699
:1015100081E193E0DDCF81E393E00E948F0683E4D5
:1015200093E00E948F0687E693E0D2CF87E893E0AE
:101530000E948F068AE993E00E948F0683ED93E074
:101540000E948F0686EE93E00E948F0683E294E06D
:101550000E948F0684E694E00E948F068FE994E053
:10156000B3CF88EC94E0B0CF8AEC94E00E948F0671
:101570000895FB01DC018D910190801911F4002088
:10158000D1F7990B0895FB019F01E8944230C4F014
:101590004532B4F44A3029F497FB1EF490958195B6
:1015A0009F4F642F77270E94630B805D8A330CF076
:1015B000895D8193CB010097A1F716F45DE2519309
:1015C0001082C9010C94E40ADC01FC0101900020A6
:1015D000E9F73297AE17BF0730F47C9160817083D2
:1015E00031976D93F7CF0895629FD001739FF001FB
:1015F000829FE00DF11D649FE00DF11D929FF00DA3
:10160000839FF00D749FF00D659FF00D9927729FD9
:10161000B00DE11DF91F639FB00DE11DF91FBD0164
:10162000CF011124089597FB092E07260AD077FDD4
:1016300004D049D006D000201AF4709561957F4FF0
:101640000895F6F7909581959F4F0895A1E21A2E7F
:10165000AA1BBB1BFD010DC0AA1FBB1FEE1FFF1F56
:10166000A217B307E407F50720F0A21BB30BE40BA6
:10167000F50B661F771F881F991F1A9469F76095ED
:101680007095809590959B01AC01BD01CF010895A7
:1016900097FB092E05260ED057FD04D0D7DF0AD0C0
:1016A000001C38F450954095309521953F4F4F4F91
:1016B0005F4F0895F6F790958095709561957F4FEF
:1016C0008F4F9F4F0895AA1BBB1B51E107C0AA1F54
:1016D000BB1FA617B70710F0A61BB70B881F991FD3
:0E16E0005A95A9F780959095BC01CD0108950B
:1016EE000C202A2A2A204445425547205265676C11
:1016FE006572202A2A00736F6C6C3A09000A0D007D
:10170E00653A0900696E743A09006469663A09001F
:10171E007374656C6C3A09000D0A000C202A2A209D
:10172E00444542554720456E636F646572202A2AF0
:10173E00005A65697420202020202020466C616E9E
:10174E006B656E0950574D0D0A0020202020002099
:10175E00202020090025202020200D0A000920200D
:10176E002000252020200D0A0001015561727420F1
:10177E007775726465207269636874696720696E33
:10178E00697469616C6973696572740A0091013FCD
:10179E000068656C700073746174757300636C73AC
:1017AE00006D6F76650064656D6F006465627567C8
:1017BE0000646562756720636D64006465627567B9
:1017CE0020656E6300646562756720726567000050
:00000001FF
