:100000000C942A000C9445000C9445000C94450077
:100010000C9445000C9445000C9445000C9445004C
:100020000C9445000C9495010C9445000C944500EB
:100030000C9445000C9445000C9445000C9445002C
:100040000C9445000C9445000C9445000C9445001C
:100050000C94450011241FBECFE5D4E0DEBFCDBF18
:1000600010E0A0E6B0E0E0EAF3E002C005900D92F7
:10007000A036B107D9F710E0A0E6B0E001C01D92AC
:10008000A736B107E1F70C9463000C940000CF93FE
:10009000DF93CDB7DEB7809131008063809331006C
:1000A00083E080934F0083E080934E0080914F0067
:1000B000806880934F0080914F00806280934F0052
:1000C000DF91CF910895CFE5D4E0DEBFCDBF809121
:1000D0003A00887F80933A0080913B00876080934C
:1000E0003B00809131008C6C8093310093E38091D0
:1000F00032008923809332000E9447000E948101D0
:100100008091320084608093320080913200877F3A
:100110008093320010924900109248008091320082
:10012000806880933200809132008F7B8093320010
:1001300010924B0010924A0081E00E943B018823FC
:1001400049F080914A0090914B000A9790934B00A0
:1001500080934A0084E00E943B018823C1F0909183
:1001600032008BEF8927809332009091320087EF25
:10017000892780933200909132008FEB89278093FA
:1001800032009FE78091320089278093320082E01D
:100190000E943B01882331F482E00E945E018823A3
:1001A00009F4CACF80914800909149000A97909332
:1001B000490080934800C0CFCF93DF93CDB7DEB71F
:1001C00021970FB6F894DEBF0FBECDBF80913900E6
:1001D000982F90958091660089278983909160007F
:1001E000898189238095809360009091600080913F
:1001F0006100982789818923809361009091600034
:100200008091610098238981892389839091660078
:10021000898189278093660090916600898198235F
:1002200080916500892B80936500809166009927F5
:1002300086709070009719F48DE78093620080912A
:100240006200815080936200882361F489E1809389
:10025000620080916600982F967080916400892BCF
:100260008093640021960FB6F894DEBF0FBECDBF19
:10027000DF91CF910895CF93DF93CDB7DEB721976C
:100280000FB6F894DEBF0FBECDBF8983F894998175
:1002900080916500892389839091650089818927F0
:1002A0008093650078948981992721960FB6F894F8
:1002B000DEBF0FBECDBFDF91CF910895CF93DF9307
:1002C000CDB7DEB721970FB6F894DEBF0FBECDBF16
:1002D0008983F8949981809164008923898390911E
:1002E00064008981892780936400789489819927A3
:1002F00021960FB6F894DEBF0FBECDBFDF91CF9130
:100300000895CF93DF93CDB7DEB784E08093530099
:1003100080915900816080935900809137008860F6
:1003200080933700DF91CF9108951F920F920FB6FF
:100330000F9211242F933F934F935F936F937F936B
:100340008F939F93AF93BF93EF93FF93CF93DF93DD
:10035000CDB7DEB7809163008F5F8093630080919B
:100360006300843541F4109263008091380098E076
:100370008927809338000E94DC00DF91CF91FF91A4
:10038000EF91BF91AF919F918F917F916F915F910D
:100390004F913F912F910F900FBE0F901F90189586
:00000001FF
